:1000000000000320D501000051020000C350000091
:1000100055020000570200005902000000000000D5
:100020000000000000000000000000005B02000073
:100030005D020000000000005F020000610200009D
:10004000CB4D0000D34D0000DB4D0000E34D000020
:10005000EB4D0000F34D0000FB4D0000034E00008F
:100060000B4E0000134E00001B4E0000234E0000FC
:100070002B4E0000334E00003B4E0000434E00006C
:100080004B4E0000534E00005B4E0000634E0000DC
:100090006B4E0000734E00007B4E0000834E00004C
:1000A0008B4E0000934E00009B4E0000A34E0000BC
:1000B000AB4E0000B34E0000BB4E0000C34E00002C
:1000C000CB4E0000D34E0000DB4E0000E34E00009C
:1000D000EB4E0000F34E0000FB4E0000034F00000B
:1000E0000B4F0000134F00001B4F0000234F000078
:1000F0002B4F0000334F00003B4F0000434F0000E8
:100100004B4F0000534F00005B4F0000634F000057
:100110006B4F0000734F00007B4F0000834F0000C7
:100120008B4F0000934F00009B4F0000A34F000037
:10013000AB4F0000B34F0000BB4F0000C34F0000A7
:10014000CB4F0000D34F0000DB4F0000E34F000017
:10015000EB4F0000F34F0000FB4F00000350000086
:100160000B500000135000001B50000023500000F3
:100170002B500000335000003B5000004350000063
:100180004B500000535000005B50000063500000D3
:100190006B5000007350000020720000000000202F
:1001A00078000000207200000000FF1F0000000027
:1001B00020720000000000140000000080000020F9
:1001C000983500000000FF1F000000000000001430
:1001D0000000000072B604F075F90E4B07E003F161
:1001E0000C049A685968186800F01AF823460A4AFD
:1001F0009342F4D306E01C46596854F8080B00F00B
:100200001EF82346054A9342F5D362B605F0ACFDCD
:10021000FEE700BF98010000BC010000D40100000F
:10022000002393420AD210B450F8044B41F8044B17
:1002300004339342F8D35DF8044B704770470023B2
:1002400003E0002240F8042B04338B42F9D37047BB
:10025000FEE7FEE7FEE7FEE7FEE7FEE7FEE7FEE776
:10026000FEE7FEE7FFFFFFFFFFFFFFFFFFFFFFFFD0
:10027000FFFFFFFFFFFFFFFFFFFFFFFFFFFFFFFF8E
:10028000FFFFFFFFFFFFFFFFFFFFFFFFFFFFFFFF7E
:10029000FFFFFFFFFFFFFFFFFFFFFFFFFFFFFFFF6E
:1002A000FFFFFFFFFFFFFFFFFFFFFFFFFFFFFFFF5E
:1002B000FFFFFFFFFFFFFFFFFFFFFFFFFFFFFFFF4E
:1002C000FFFFFFFFFFFFFFFFFFFFFFFFFFFFFFFF3E
:1002D000FFFFFFFFFFFFFFFFFFFFFFFFFFFFFFFF2E
:1002E000FFFFFFFFFFFFFFFFFFFFFFFFFFFFFFFF1E
:1002F000FFFFFFFFFFFFFFFFFFFFFFFFFFFFFFFF0E
:10030000FFFFFFFFFFFFFFFFFFFFFFFFFFFFFFFFFD
:10031000FFFFFFFFFFFFFFFFFFFFFFFFFFFFFFFFED
:10032000FFFFFFFFFFFFFFFFFFFFFFFFFFFFFFFFDD
:10033000FFFFFFFFFFFFFFFFFFFFFFFFFFFFFFFFCD
:10034000FFFFFFFFFFFFFFFFFFFFFFFFFFFFFFFFBD
:10035000FFFFFFFFFFFFFFFFFFFFFFFFFFFFFFFFAD
:10036000FFFFFFFFFFFFFFFFFFFFFFFFFFFFFFFF9D
:10037000FFFFFFFFFFFFFFFFFFFFFFFFFFFFFFFF8D
:10038000FFFFFFFFFFFFFFFFFFFFFFFFFFFFFFFF7D
:10039000FFFFFFFFFFFFFFFFFFFFFFFFFFFFFFFF6D
:1003A000FFFFFFFFFFFFFFFFFFFFFFFFFFFFFFFF5D
:1003B000FFFFFFFFFFFFFFFFFFFFFFFFFFFFFFFF4D
:1003C000FFFFFFFFFFFFFFFFFFFFFFFFFFFFFFFF3D
:1003D000FFFFFFFFFFFFFFFFFFFFFFFFFFFFFFFF2D
:1003E000FFFFFFFFFFFFFFFFFFFFFFFFFFFFFFFF1D
:1003F000FFFFFFFFFFFFFFFFFFFFFFFFFFFFFFFF0D
:10040000FFFFFFFFFFFFFFFFFFFFFFFFFEFFFFFFFD
:1004100080B582B000AF78607968024804F03EFC95
:1004200000BEFDE7E061000080B588B000AFB960B4
:100430007B600346FB731346BB73BB7B012B01D070
:10044000012321E0124ABB7B13747B683B61BB68CC
:100450007B6100233B7600237B760123BB7601235F
:10046000FB7600233B7700237B77FB7BBB7707F191
:1004700010031946064804F043F8054B054A9A60F4
:10048000034B054ADA60002318462037BD4680BD7D
:1004900040300020954600002946000080B584B019
:1004A00000AF786039600023FB60094B1B7C002B98
:1004B00002D14FF0FF3306E03A687968054800F052
:1004C00023F8F860FB6818461037BD4680BD00BFB2
:1004D00040300020D904000080B582B000AF7860C1
:1004E000084B1B7C002B02D14FF0FF3306E0054B7D
:1004F0009B68391D01220348984701231846083795
:10050000BD4680BD4030002080B59CB002AFF86091
:10051000B9607A6000233B660023FB650023FB6122
:10052000002387F84A3000237B61BB687B667B6EC3
:100530001B78002B00F0D2817B6E1B7887F8493046
:1005400097F84930252B0BD097F84920FB681046C7
:100550009847FB690133FB617B6E01337B66BCE12D
:10056000012387F84B3000237B65002387F85B303D
:1005700020E07B6E01337B667B6E1B7887F8493009
:1005800097F849302F2B0FD997F84930392B0BD8D2
:100590007A6D13469B0013445B001A4697F8493066
:1005A0001344303B7B6505E07B6E013B7B6601239A
:1005B00087F85B3097F85B3083F00103DBB2002BE8
:1005C000D7D17B6E01337B667B6E1B782E2B2ED1B1
:1005D00000233B65002387F85B3020E07B6E01330E
:1005E0007B667B6E1B7887F8493097F849302F2B54
:1005F0000FD997F84930392B0BD83A6D13469B0029
:1006000013445B001A4697F849301344303B3B656E
:1006100005E07B6E013B7B66012387F85B3097F832
:100620005B3083F00103DBB2002BD7D102E07B6E9D
:10063000013B7B667B6E01337B667B6E1B7887F8A4
:10064000493097F84930642B24D097F84930692B0A
:1006500020D097F84930662B1CD097F84930462BAC
:1006600018D097F84930782B14D097F84930582B88
:1006700010D097F849306F2B0CD097F84930622B87
:1006800008D097F84930702B04D097F84930752B73
:1006900040F0DC8097F84930642B03D097F849305C
:1006A000692B15D17B681A1D7A601B68BB6107F145
:1006B000180107F1200097F84B3000930A2301221C
:1006C00004F022FBF86507F12002FB6D13443B6642
:1006D00097F84930582B03D097F84930782B1CD124
:1006E00097F84930782B02D1002387F84B307B688C
:1006F0001A1D7A601B687B6107F1140107F1200065
:1007000097F84B3000931023002204F0FDFAF865AF
:1007100007F12002FB6D13443B6697F849306F2BBD
:100720000BD097F84930622B07D097F84930702BDF
:1007300003D097F84930752B6AD197F84930702B60
:100740000DD17B681A1D7A601B683B6107F11001AF
:1007500007F114030422184605F00DFB04E07B6842
:100760001A1D7A601B687B6197F84930623B132B36
:100770003AD801A252F823F0D1070000E90700009F
:10078000E9070000E9070000E9070000E9070000A9
:10079000E9070000E9070000E9070000E907000099
:1007A000E9070000E9070000E9070000C9070000A9
:1007B000D9070000E9070000E9070000E907000089
:1007C000E9070000E1070000082387F84A300CE041
:1007D000022387F84A3008E0102387F84A3004E003
:1007E0000A2387F84A3000E000BF97F84A2007F153
:1007F000140107F1200097F84B30009313460022B4
:1008000004F082FAF86507F12002FB6D13443B66A1
:100810007A6D07F11C01FB6800930B46F96D2020EF
:1008200004F052FA3B6E002B54D00AE03B6E5A1E85
:100830003A661B781A46FB6810469847FB690133F5
:10084000FB613B6E1B78002BF0D143E097F84930F9
:10085000632B0BD17B681A1D7A601B687B64FB6875
:10086000786C9847FB690133FB6133E097F84930B6
:10087000732B27D17B681A1D7A601B68FB64FB6CA5
:10088000002B27D0F86C05F0B1FA0346FB657A6DB2
:1008900007F11C01FB6800930B46F96D202004F062
:1008A00013FA0AE0FB6C5A1CFA641B781A46FB68C0
:1008B00010469847FB690133FB61FB6C1B78002BEA
:1008C000F0D107E097F84920FB6810469847FB698C
:1008D0000133FB617B6E01337B6628E600BFFB6959
:1008E00018466837BD4680BD80B586B000AF7860D9
:1008F0007B68012B24D1184B9B6A984778617B69F0
:10090000002B1DD0786904F00BF838613B69002B8F
:1009100016D0114B5B6A7969386998470346FB60CA
:100920007A69FB689A4208D10C4B1B68132B04D8D8
:100930000A4B1B680133094A1360386905F01FFA36
:100940007B68022B04D1064B1B680133044A1360F9
:1009500000BF1837BD4680BDB46D00005034002084
:100960004C34002080B582B000AF00237B6040F2A1
:10097000DA333B6006221749174805F0FCF90622D6
:100980001649174805F0F7F93B681B0ADAB2124B13
:100990001A733B68DAB2104B5A7300237B6010E085
:1009A0007968104BA3FB0123DA0913461B029B1A3B
:1009B000CA1A7B680E33D1B2074AD1547B6801331F
:1009C0007B607A683B689A42EAD300BF00BF083771
:1009D000BD4680BD080000205430002000000020EB
:1009E0005A3000208180808080B582B000AF002323
:1009F0007B6003F00BFF03F0BDFE05F066F90021FC
:100A0000494804F03AFB494B494A1A6004F051FB4B
:100A10000346464A5360474804F040F9464B9B68FA
:100A200046489847444B1B6902209847424B9B69B4
:100A300043489847434804F031F902E0424804F043
:100A40002DF9424BDB68022098470346002BF5D175
:100A5000394B9B6B012103209847374B9B6B01213E
:100A6000022098473A4804F019F9384B9B69984797
:100A70000346012BF9D1354BDB69984703463B60B0
:100A80002D4B9B6B3A68C2F30102D2B211463A6811
:100A9000C2F38002D2B292000A4342F080021146B1
:100AA0000120984700BFFFF75DFF2A4B1B68002B12
:100AB0000FD0294B1A68274B1B689A4209D0254B47
:100AC0001B68254A1360244B1B681946234804F011
:100AD000E5F8234B1A68234B1B689A4209D0214B37
:100AE0001B681F4A13601E4B1B6819461E4804F002
:100AF000D5F87B68132BD8D87B6801337B600E4B0D
:100B00001B6A02224FF47A71184898470346002B5B
:100B100005D117494FF47A7000F0BCFFC5E71548BE
:100B200004F0BCF8C1E700BF00D000401000002076
:100B300000000C40F4610000B46D0000E908000002
:100B4000000000200C62000024620000086E00001B
:100B5000806200004C340020583400209C62000069
:100B60005434002050340020C06200005430002073
:100B7000000E2707FC62000080B586B000AF7860E9
:100B800039604FF47A737B6100233B610023FB6083
:100B90007B685B68184604F0AAFA3B681A687B68B1
:100BA0001A607B6858687B68196807F10C03022299
:100BB00004F0BEFA38613B69002B01D03B6968E064
:100BC0007B69013B7B61FB68222B02D07B69002B98
:100BD000E7D17B69002B01D101235AE07B6858687B
:100BE0007B6819684FF40043002204F08DFA3861E5
:100BF0003B69002B4CD13B689B79002B17D07B685D
:100C000058687B68196840F2E113042204F07CFA0A
:100C100038613B69002B3BD17B6858687B68196859
:100C20004FF49053002204F06FFA386130E03B68D3
:100C30001B79012B02D91948FFF7EAFB7B6858683A
:100C40007B68196807F10C03002204F071FA38611F
:100C50003B69002B01D03B691BE0FB6823F48063F8
:100C6000FB607B6858687B681968FB68002204F0A9
:100C70004BFA38613B69002B01D03B6909E03B68C6
:100C800019793B685B791A46786800F0ABF83861EF
:100C90003B6918461837BD4680BD00BF3863000069
:100CA00080B584B000AF786039603B68002B02D11A
:100CB0000F48FFF7ADFB3B6800221A707B6858684D
:100CC0007B68196807F10803012204F031FAF86023
:100CD000FB68002B07D1BB6803F02003002B02D078
:100CE0003B6801221A70FB6818461037BD4680BD6C
:100CF0007063000080B584B000AF786039603B68F5
:100D0000002B02D11048FFF783FB7B6858687B6893
:100D1000196807F10803012204F00AFAF860FB6879
:100D2000002B0BD1BB6803F00403002B03D03B68FE
:100D300001221A7002E03B6800221A70FB68184614
:100D40001037BD4680BD00BF9063000080B588B0FD
:100D500000AFF860B9607A60BB68002B05D17B6892
:100D6000002B02D11E48FFF753FBFB685868FB6855
:100D7000196807F114031E2204F0DAF9F861FB691F
:100D8000002B27D1BB68002B10D07B6903F0070331
:100D9000BB61BB69022B02D0BB69062B03D1BB68C8
:100DA00001221A7002E0BB6800221A707B68002BD7
:100DB00010D07B6903F00703BB61BB69052B02D030
:100DC000BB69062B03D17B6801221A7002E07B68A5
:100DD00000221A70FB6918462037BD4680BD00BF4F
:100DE000B063000080B584B000AF78600B46FB7044
:100DF0001346BB70FB78012B02D91D48FFF708FB97
:100E00007B6858687B68196807F10803002204F0C2
:100E10008FF9F860FB68002B24D1BB6823F4805362
:100E2000BB60FB78012B04D1BB6843F40053BB606B
:100E300003E0BB6823F40053BB60BB78012B04D1F3
:100E4000BB6843F48073BB6003E0BB6823F480732A
:100E5000BB607B6858687B681968BB68002204F037
:100E600053F9F860FB6818461037BD4680BD00BFD7
:100E7000F063000080B584B000AF7860084611468A
:100E80001A460346FB700B46BB7013467B70FB781B
:100E9000012B02D94848FFF7BBFABB78012B02D9D6
:100EA0004648FFF7B5FA7B78002B46D0FB78002B3D
:100EB00013D1BB78012B03D14FF4C243BB6002E0D6
:100EC0004FF48243BB607B6858687B681968BB68D5
:100ED000002204F019F9034669E0BB78012B02D027
:100EE0003748FFF795FA4FF4C243BB607B685868F8
:100EF0007B681968BB68002204F006F9F860FB689B
:100F0000002B01D0FB6852E07B6858687B68196849
:100F100007F108031F2204F00BF9F860FB68002BAF
:100F200044D17B6858687B681968BB6843F0040348
:100F30001F2204F0E9F8034639E0FB78002B1CD1AE
:100F40007B6858687B68196807F10803002204F081
:100F5000EFF8F860FB68002B28D1BB6823F48043CE
:100F6000BB607B6858687B681968BB6843F4007392
:100F7000002204F0C9F8034619E07B6858687B68D2
:100F8000196807F108031F2204F0D2F8F860FB6823
:100F9000002B0BD17B6858687B681968BB6823F00D
:100FA00004031F2204F0B0F8034600E0FB68184673
:100FB0001037BD4680BD00BF2064000050640000B3
:100FC0008064000080B586B000AF78607B687B618C
:100FD0007B691B683B61386900F078FFF860094A5B
:100FE000FB6852F82330184604F0DCF87B695B6834
:100FF00000221946386901F001FD00BF1837BD46CF
:1010000080BD00BF4C66000080B588B000AFF860BE
:10101000B9607A603B603B68002B02D11648FFF74D
:10102000F7F9FB68FB61FB691B68BB6100237B610F
:101030004FF40001B86904F0E8F802237A68B9684F
:10104000B86904F0AFFAB86904F01BF978617B69FC
:10105000002B01D07B690BE0B86904F0BDF80246B3
:101060003B681A604FF40001B86904F0CEF87B6960
:1010700018462037BD4680BDC464000080B483B0EC
:1010800000AF7860084B1B6823F440227B689B0408
:1010900003F44023044913430B6000BF0C37BD46E3
:1010A0005DF8047B704700BF0070044080B483B0DB
:1010B00000AF78600A4B03F580535B6823F440323D
:1010C0007B681B0403F440330549134301F5805248
:1010D000536000BF0C37BD465DF8047B704700BF0E
:1010E0000070044080B582B000AF174B1B7BDBB2B1
:1010F00003F00303022B1CD0022B1DD8002B02D0BF
:10110000012B0BD018E0114B1B68002B02D11048AB
:10111000FFF77EF90D4B1B687B6010E00D4B1B68E1
:10112000002B02D10C48FFF773F90A4B1B687B6058
:1011300005E00A4B7B6002E000237B6000BF7B6818
:1011400018460837BD4680BD004006405C3400208C
:10115000EC6400006034002010650000006CDC02CC
:1011600080B582B000AFFFF7BDFF7860254B1B78DC
:10117000DBB2DB08DBB203F00703FB70FB787A68B5
:1011800022FA03F37B601F4B5B78DBB21B09DBB2F7
:1011900003F00303BB701B4B1B7BDBB203F00303A9
:1011A0007B70BB78002B02D07B78002B02D07B7841
:1011B000022B21D1FB78072B14D0072B19DC052B30
:1011C00002DC002B03DA14E0062B04D011E07B686C
:1011D0005B097B6011E07B680B4AA2FB03231B09C0
:1011E0007B600AE07B68094AA2FB0323DB087B6083
:1011F00003E000237B6000E000BF7B6818460837EF
:10120000BD4680BD00400640CDCCCCCCABAAAAAA3E
:1012100080B483B000AF0E4B9B79DBB203F00103C7
:10122000002B03D10B4B1B687B600AE00A4B1A684A
:10123000074B1B7ADBB25B0803F0070322FA03F3C8
:101240007B607B6818460C37BD465DF8047B7047B1
:1012500000400640280000202C00002080B582B00D
:1012600000AF094B9B79DBB203F01003002B03D1D5
:10127000FFF776FF786002E0044B1B687B607B68B9
:1012800018460837BD4680BD0040064028000020B3
:1012900080B485B000AF78607B6849F697029342CE
:1012A00002D80023FB7308E07B68074A934202D808
:1012B0000123FB7301E00223FB73FB7B1846143709
:1012C000BD465DF8047B704700127A0080B582B09D
:1012D00000AF0C4B1B78DBB25BB2002B0ADA0A4B77
:1012E0001B68002B02D10948FFF792F8064B1B68D8
:1012F0007B6001E000237B607B6818460837BD46B1
:1013000080BD00BF005006405C34002038650000FE
:1013100080B582B000AF184B1B689B0C03F0030331
:10132000032B1DD0032B1FD8002B02D0022B0CD077
:101330001AE0FFF7CBFF0346B3F5004F02D14FF49D
:10134000004300E000237B6011E00C4B1B68002B86
:1013500002D10B48FFF75CF8084B1B687B6006E086
:101360004FF47A737B6002E000237B6000BF7B68F0
:1013700018460837BD4680BD007004406034002028
:101380005865000080B582B000AF114B03F5805363
:101390005B681B0C03F00303032B0ED0032B0FD849
:1013A000002B02D0012B04D00AE000F015F9786080
:1013B00009E000F06BF9786005E0064B7B6002E025
:1013C00000237B6000BF7B6818460837BD4680BDA0
:1013D00000700440006CDC0280B500AF00F0CAF879
:1013E0000246064B03F580535B6C1B0F03F00F03A3
:1013F0000133B2FBF3F3184680BD00BF0070044018
:1014000080B584B000AF0346FB71FB79132B00F26B
:101410008A8001A252F823F06914000069140000C8
:1014200087140000A5140000C31400002715000055
:10143000E1140000E9140000F11400002715000079
:1014400027150000F914000001150000091500001F
:1014500011150000271500002715000027150000B2
:10146000191500001F15000000F084F80246324BE9
:1014700003F580535B6C1B0F03F00F030133B2FBCA
:10148000F3F3FB6052E000F075F802462A4B03F5D7
:1014900080535B6C1B0E03F00F030133B2FBF3F3BD
:1014A000FB6043E000F066F80246234B03F58053EF
:1014B0005B6C1B0D03F00F030133B2FBF3F3FB6016
:1014C00034E000F057F802461B4B03F580535B6C89
:1014D0001B0C03F00F030133B2FBF3F3FB6025E0B9
:1014E000FFF750FFF86021E0FFF712FFF8601DE002
:1014F000FFF7ECFEF86019E003F013FFF86015E069
:1015000000F0ACF8F86011E000F066F8F8600DE06B
:1015100000F0BCF8F86009E0084BFB6006E04FF40F
:101520007A73FB6002E00023FB6000BFFB68184693
:101530001037BD4680BD00BF00700440006CDC0267
:1015400080B582B000AF7860094A7B685B6802F5BD
:10155000805253647B681B781846FFF7A7FD7B68B1
:101560005B781846FFF78AFD00BF0837BD4680BD8F
:101570000070044080B582B000AF164B9B79DBB29F
:101580009B0803F003033B603B68032B1AD801A2BE
:1015900052F823F0AD150000B5150000BD15000090
:1015A000A515000000F072F878600EE000F014F865
:1015B00078600AE0FFF72CFE786006E0FFF792FD06
:1015C000786002E000237B6000BF7B681846083724
:1015D000BD4680BD0040064080B584B000AF1D4BC5
:1015E0005B78DBB203F00203002B06D1194B9B7929
:1015F000DBB203F02003002B02D00023FB6024E0C9
:10160000FFF72CFEB860BB68002B02D1BB68FB6003
:101610001BE0104BDB78DBB25B09DBB203F00303AA
:10162000FB710C4BDB78DBB2DB09DBB203F00103AF
:10163000BB71FA79BB7908495200134431F8133071
:101640001A46BB6802FB03F3FB60FB6818461037C1
:10165000BD4680BD00400640EC65000080B582B00C
:1016600000AF094B1B78DBB203F00203002B02D161
:1016700000237B6002E0FFF7CBFD78607B681846B3
:101680000837BD4680BD00BF0040064080B584B02D
:1016900000AF1A4B9B79DBB203F04003002B02D161
:1016A0000023FB6024E003F035FEB860BB68002B2C
:1016B00002D11348FEF7ACFE104B1B79DBB203F0EE
:1016C0001F03DBB20133FB71FB79BA68B2FBF3F3A2
:1016D000BB600A4B5B79DBB203F01F03DBB218334C
:1016E000BB71BA79BB6802FB03F3BB60BB68FB60EC
:1016F000FB6818461037BD4680BD00BF004006405D
:101700007865000080B485B000AF0346FB71174BCD
:101710001B7BDBB203F00302FB799A4202D0012368
:10172000FB7301E00023FB73104B1B7BDBB223F048
:101730000303DAB2FB7903F00303DBB20B49134373
:10174000DBB20B73FB7B002B09D040F2DC53BB6098
:1017500000E000BFBB685A1EBA60002BF9D100231D
:1017600018461437BD465DF8047B704700400640BC
:1017700080B485B000AF0346FB710B46BB711346C6
:101780007B713B4B9B79DBB29B0803F00303FB604F
:10179000374B9B79DBB203F00103FB72344B1B7AAE
:1017A000DBB25B08DBB203F00703BB727A79BB7A6A
:1017B0009A422CD02E4B1B78DBB203F00203002B95
:1017C00002D1FB68012B12D1FB7A012B0FD1284BE0
:1017D0005B78DBB2264A23F00103DBB2537000BF13
:1017E000234B9B79DBB203F00103002BF8D1204B94
:1017F0001B7ADBB223F02F03DAB27B795B00DBB21A
:1018000003F00E03DBB21A491343DBB20B72184B21
:101810005B78DBB223F00103DAB2BB7903F001039A
:10182000DBB213491343DBB24B70114B1B78DBB2B5
:1018300023F00303DAB20E49FB791343DBB20B70DA
:10184000FB68012B04D0FB7903F00203002B08D0C6
:1018500000BF074B9B79DBB203F00102BB799A42D0
:10186000F7D1002318461437BD465DF8047B704756
:101870000040064080B584B000AF78607B68002BE4
:1018800002D11C48FEF7C4FD0023FB737B685B7824
:1018900003F01F03DAB2FB7B1343FB73164AFB7B97
:1018A0001371154B5B79DBB223F01F03DAB27B684F
:1018B0009B7803F01F03DBB20F491343DBB24B717C
:1018C0000D4B1B79DAB27B681B781343DBB20A4AF3
:1018D00043F04003DBB2137100BF074B9B79DBB2CF
:1018E00003F04003002BF8D000BF00BF1037BD4607
:1018F00080BD00BF986500000040064080B584B000
:1019000000AF78607B681B681846FFF7C1FC034690
:10191000FB737B681B791946194803F0E1FC194BEE
:101920005B78DBB223F03C03DAB2FB7B1B01DBB25A
:1019300003F03003DBB21343DAB27B685B79114901
:101940001343DBB24B707B68063319460C4803F037
:10195000ADFC7B685B79002B0DD0094B1B78DBB2AB
:101960005BB2002B07DA00BF064B9B79DBB203F0BA
:101970000203002BF8D000BF1037BD4680BD00BF6A
:10198000005006400040064080B582B000AF0346DC
:101990003960FB713B68002B02D12348FEF738FD0C
:1019A000224B5B78DBB2214A23F00203DBB2537097
:1019B0001E4B1B78DBB203F03B03DBB21B4A63F028
:1019C0007F03DBB2137000BF184B9B79DBB203F0CF
:1019D0001C03082BF8D1154B5B79DBB2134A23F0BB
:1019E0004003DBB2537100BF104B9B79DBB203F0B5
:1019F0002003002BF8D13868FFF73CFF0B4B5B79D5
:101A0000DBB20A4A43F04003DBB2537100BF074B1D
:101A10009B79DBB203F02003002BF8D0002318469B
:101A20000837BD4680BD00BFB465000000400640D9
:101A300080B582B000AF03463A60FB710B46BB71C4
:101A40003B68002B02D11148FEF7E2FCFB791846F7
:101A5000FFF758FEBB7939681846FFF795FF0C4B26
:101A60001B78DBB20A4A03F03F03DBB2137000BFFE
:101A7000074B9B79DBB29B0803F00303032BF7D1E1
:101A8000002318460837BD4680BD00BFD065000062
:101A9000004006402DE9B04384B000AF7860396063
:101AA0007968002932D079680020884681463968F3
:101AB00000200A46034602FB09F008FB03F101443B
:101AC000A8FB02454B191D46134A4FF00003204660
:101AD000294604F082FA02460B46C7E90223D7E9F9
:101AE0000223012B02D30D48FEF792FCD7E9020135
:101AF0004FF000024FF00003820842EA81728B0827
:101B0000C7E90223BB68184603F025FC00BF103765
:101B1000BD46BDE8B08300BF40420F00FC65000039
:101B200090B589B000AF78607B68002B02D1674820
:101B3000FEF76EFC7B689B687A68127CDA777B68BC
:101B40009A687B681B7C5B01134403F580531C334C
:101B50001B889BB203F08003002B14BF01230023DA
:101B6000BB767B68DB68002B0DD17B681B68002B84
:101B700000F0A7807B681C687B685968BA7E0023E8
:101B80007868A0479DE07B689A687B681B7C5B0156
:101B9000134403F5805318331B687B617B689A6894
:101BA0007B681B7C5B01134403F580531C331B884B
:101BB0009BB203F01003002B14BF01230023FB741E
:101BC0007B68DB681A467B699B1A7B617B695B09D2
:101BD000FB60BB7E002B02D0FB68FB760EE0FB684F
:101BE000002B04D0FB68DBB2013BDBB205E07B6875
:101BF0001B7D5BB2DBB2013BDBB2FB767B685B7CBF
:101C00005AB297F91B309A4219D17B68DB7CFB7280
:101C10007B681B7DBB7297F90B2097F90A309A42BB
:101C200005D0FB7C83F00103DBB2002B04D07B6882
:101C3000DB7C5BB2FB6112E00023FB610FE0FB7E0B
:101C40007A68527C52B29B1AFB61FB69002B06DA60
:101C50007B681B7D5BB21A46FB691344FB6197F9F5
:101C60001B207B685A747B68DB7C5BB2DAB2FB6951
:101C7000DBB2D31ADBB25AB27B68DA747B681B68BA
:101C8000002B07D07B681C687B685968FB69BA7EAB
:101C90007868A047BB7E002B13D07B689A687B686E
:101CA0001B7C5B01134403F580531C331B889BB2E0
:101CB00003F01003002B04D07B689B687A68127CC9
:101CC0001A7700BF2437BD4690BD00BF28660000CC
:101CD00080B500AF044B1B681846FFF721FFBFF328
:101CE0004F8F00BF00BF80BD6434002080B500AFBF
:101CF000044B5B681846FFF713FFBFF34F8F00BF1D
:101D000000BF80BD6434002080B500AF044B9B68E9
:101D10001846FFF705FFBFF34F8F00BF00BF80BD20
:101D20006434002080B500AF044BDB681846FFF731
:101D3000F7FEBFF34F8F00BF00BF80BD64340020AB
:101D400080B500AF044B1B691846FFF7E9FEBFF3EF
:101D50004F8F00BF00BF80BD6434002080B500AF4E
:101D6000044B5B691846FFF7DBFEBFF34F8F00BFE4
:101D700000BF80BD6434002080B500AF044B9B6978
:101D80001846FFF7CDFEBFF34F8F00BF00BF80BDE9
:101D90006434002080B500AF044BDB691846FFF7C0
:101DA000BFFEBFF34F8F00BF00BF80BD6434002073
:101DB00080B500AF044B1B6A1846FFF7B1FEBFF3B6
:101DC0004F8F00BF00BF80BD6434002080B500AFDE
:101DD000044B5B6A1846FFF7A3FEBFF34F8F00BFAB
:101DE00000BF80BD6434002080B500AF044B9B6A07
:101DF0001846FFF795FEBFF34F8F00BF00BF80BDB1
:101E00006434002080B500AF044BDB6A1846FFF74E
:101E100087FEBFF34F8F00BF00BF80BD643400203A
:101E200080B500AF044B1B6B1846FFF779FEBFF37C
:101E30004F8F00BF00BF80BD6434002080B500AF6D
:101E4000044B5B6B1846FFF76BFEBFF34F8F00BF71
:101E500000BF80BD6434002080B500AF044B9B6B95
:101E60001846FFF75DFEBFF34F8F00BF00BF80BD78
:101E70006434002080B500AF044BDB6B1846FFF7DD
:101E80004FFEBFF34F8F00BF00BF80BD6434002002
:101E900080B483B000AF0346FB7197F90730002B85
:101EA0000BDBFB7903F01F02074997F907305B0949
:101EB000012000FA02F241F8232000BF0C37BD4692
:101EC0005DF8047B704700BF00E100E080B584B09E
:101ED00000AF78600023FB6006E00B4A7B6893420A
:101EE00006D0FB680133FB60FB68002BF5D000E0F7
:101EF00000BFFB68002B02D00448FEF789FAFB689C
:101F000018461037BD4680BD00000C4050660000EA
:101F100080B582B000AF78607B68002B02D10E489C
:101F2000FEF776FA28220021786803F026FF7B6806
:101F300001229A727B680122DA727B6801221A738D
:101F40007B6801229A757B6840F2EE521A8100BFCD
:101F50000837BD4680BD00BF8466000080B588B0EC
:101F600002AFF860B9607A603B60BB68002B02D1B9
:101F70002348FEF74DFA7B68002B02D12148FEF77B
:101F800047FA3B68002B02D11F48FEF741FA3B6A33
:101F9000002B02D11D48FEF73BFA7B689B7D012B8D
:101FA00002D91B48FEF734FA00237B613A6879684E
:101FB000B86800F0E7FA3A687968B86800F054FB4E
:101FC0007B6A01933B6A00933B687A68B968F8685A
:101FD00000F0B0F97B6A00933B687A68B968F868EA
:101FE00000F0D4F8BB685B6B002B04D0B968F868CC
:101FF00000F0B8FB78617B6918461837BD4680BD94
:10200000A4660000C4660000E46600000C670000DF
:102010003067000080B588B002AFF860B9607A60C0
:102020003B60F868FFF752FF78610B4B184603F0EE
:10203000A2F9F86803F00FFA7B6A01933B6A0093F8
:102040003B687A68B968F868FFF788FF0346184666
:102050001837BD4680BD00BF00002C1080B584B08D
:1020600000AF78607868FFF731FFF8600C4AFB68D2
:1020700052F82330BB607B6800229A607B685B6A01
:1020800023F002027B685A62BB689B6B002B03D073
:10209000B968786800F0CCFB00BF1037BD4680BD42
:1020A000A434002080B582B000AF78607868FFF774
:1020B000D5FF7868FFF70AFF034B184603F075F960
:1020C00000BF0837BD4680BD00002C1080B584B02D
:1020D00000AFF860B9607A60FB68002B02D1064857
:1020E000FEF796F9FB68BA68DA61FB687A681A62EB
:1020F00000BF1037BD4680BD8467000080B584B046
:1021000000AF786039607868FFF7E0FEF860064954
:10211000FB683A6841F823205423184603F061F91C
:1021200000BF1037BD4680BDAC34002080B584B000
:1021300000AF786039607868FFF7C8FEF86006493C
:10214000FB683A6841F823205323184603F049F905
:1021500000BF1037BD4680BDA834002080B584B0D4
:1021600000AF786039607868FFF7B0FEF860064924
:10217000FB683A6841F823205523184603F031F9EB
:1021800000BF1037BD4680BDB034002080B588B098
:1021900000AFF860B9607A603B60F868FFF796FEC0
:1021A00078613B68BB6184220021B86803F0E5FDDB
:1021B0000023FB776FE0BB699B881A46BB691B88CD
:1021C00002FB03F37A681289934202DC5348FEF75C
:1021D0001FF9FA7FBB699968BB6843F83210FB7F2F
:1021E000BA699188BA6808335B0013440A469A803A
:1021F000FB7FBA691188BA68DB0013440A46DA80AB
:10220000FB7FBA69117EBA6813440A461A76FA7FD0
:10221000BB69D968B86813465B0013449B0003444C
:1022200008331960FB7FBA69D188BA6808335B004C
:1022300013440A46DA80FA7FBB695888B9681346A6
:102240005B0013449B000B44123302461A80FB7F51
:10225000BA69517EBA6813440A465A76FA7FBB6956
:10226000D969B86813465B0013449B0003442433C8
:102270001960FA7FBB695888B96813465B0013443C
:102280009B000B442C3302461A80BB692033BB6190
:10229000FB7F0133FB777B689B7DFA7F9A428AD371
:1022A0007B689A7DBB689A767B689A69BB685A633B
:1022B0007B68DA69BB689A637B681A6ABB68DA6113
:1022C0007B685A6ABB681A62BB68BA6ADA671449E3
:1022D0007B69BA6841F823207B685B6803F0406340
:1022E000002B03D00F49F868FFF720FF7B685B687D
:1022F00003F04073002B03D00B49F868FFF7FEFE94
:102300007B685A68094B1340002B03D00849F868D2
:10231000FFF724FF00BF2037BD4680BDA467000043
:10232000A4340020A53200003133000000007C609E
:102330008D33000080B58CB000AFF860B9607A6072
:102340003B600023FB6200237B62FB685B6A3B62AD
:102350007B681B68FB617B681B89BB620023BB61D8
:10236000FB6903F40073002B02D040F2F253BB620E
:10237000FB695B0703F08042FB69DB039BB21A43F6
:10238000FB695B0103F020031A43FB699B0203F422
:1023900080531A43FB695B0003F010031A43FB6987
:1023A0001B0903F008031A43BB6A1904744B0B4062
:1023B000134343F48043FB62FB6A43F00403FB6274
:1023C0007B689B7A012B03D1FB6A43F48073FB6229
:1023D0007B68DB7A002B03D1FB6A43F40073FB625A
:1023E0007B681B7B002B03D1FB6A43F00203FB627B
:1023F0007B681B6803F48073002B0BD07B689B7A8F
:10240000012B07D0FB6A43F00103FB62FB6A23F058
:102410000203FB62FB68FA6AC3F88420FB68D3F806
:10242000C43023F482737B627B681B7B002B01D05A
:10243000042200E00022FB691B0103F480731343B4
:102440007A6A13437B62FB687A6AC3F8C4207B68AC
:102450009B7B1A46FB68C3F8C0217B685B7B1A46EE
:10246000FB68C3F8C421FB6903F00103002B14D0FF
:102470007B681B8A1A46FB68C3F8EC207B689B7C50
:102480007B617B68DB7C1B0403F4F8137A691343DC
:102490007B61FB687A69C3F89421FB6903F0200330
:1024A000002B10D07B685B7D03F03F03BB61FB68B2
:1024B000BA69C3F844217B681B7DBB61FB68BA69BC
:1024C000C3F8902108E0FB684FF48072C3F8442100
:1024D000FB680022C3F890217B689B7B03F0180304
:1024E000002B04D0FB684FF48072C3F844217B6852
:1024F0005B7B03F00603002B03D0FB680022C3F8CC
:1025000090213B68DB681A46FB68C3F884213B686E
:102510009B681A46FB68C3F880213B689B881A4673
:10252000FB68C3F88821B96BF86802F0E4FFF8682B
:1025300002F0A1FF034683F00103DBB2002B0ED0B3
:102540007B681B689B0903F00103002B14BF012368
:102550000023DBB21A46F96BF86800F04FFA7B688B
:102560005B681946F86802F0B5FF3B6A43F4817373
:102570003B62FB683A6A5A6200BF3037BD4680BD95
:102580000000FF3F80B58AB000AFF860B9607A60A4
:10259000BB68002B02D13248FDF73AFF7B68002B65
:1025A00002D13048FDF734FF00233B627B68FB61BA
:1025B000002387F8273047E0FB69DB68002B3BD01E
:1025C000FB69DB68BB61FB69DB887B61FB695B697D
:1025D000002B02D0FB695B693B620023BB8426E0D1
:1025E000FB695B69002B07D0BB8C7A6902FB03F3A4
:1025F0003A6A1A44BB695A60BB6900221A80BB69F7
:102600004FF480625A80BA8CFB695B88013B9A4226
:1026100007D1BB695B889BB243F400539AB2BB6994
:102620005A80BB690833BB61BB8C0133BB84FB6937
:102630005B88BA8C9A42D3D3FB692033FB6197F84D
:102640002730013387F82730BB689B7D97F8272018
:102650009A42B1D300BF00BF2837BD4680BD00BF3E
:10266000FC6700001C68000080B58AB000AFF8600D
:10267000B9607A60BB68002B02D13748FDF7C8FE0D
:102680007B68002B02D13548FDF7C2FE7B683B62B8
:10269000002387F8273053E03B6A9B88FF2B02D842
:1026A0002F48FDF7B5FE3B6A9B68002B40D03B6A84
:1026B0001B69002B03D1BB689B69002B38D03B6A98
:1026C0009B68FB613B6A9B887B833B6A1B697B61E0
:1026D0000023BB8427E0FB6900221A80BB689B694A
:1026E000002B0CD1BB8C7A8B02FB03F31A467B695F
:1026F0001A44FB695A60FB694FF400425A80BA8C55
:102700003B6A1B88013B9A4207D1FB695B889BB2FD
:1027100043F400539AB2FB695A80FB690833FB61AA
:10272000BB8C0133BB843B6A1B88BA8C9A42D2D3E0
:102730003B6A20333B6297F82730013387F8273014
:10274000BB689B7D97F827209A42A5D300BF00BFA6
:102750002837BD4680BD00BF4468000064680000A3
:102760008C68000080B586B000AF786039603B6847
:102770005B6B002B02D12C48FDF74AFE00233B8205
:1027800047E03A8A3B6853F83230002B02D12748A1
:10279000FDF73EFE3B8ADB003A681344FB60FB68B2
:1027A0001B687B6100237B823B685B6B3A68116A24
:1027B0003A8AD2B278689847B860BB68002B06D1D5
:1027C0003968786800F034F84FF47A6328E07B6960
:1027D000BA685A607B695B889BB26FEA43436FEAD1
:1027E00053439AB27B695A80FB68DA887B8A114628
:1027F000184600F053F903467B82FB681A687B8A0F
:10280000DB0013447B617B8A002BCDD13B8A0133F3
:102810003B823B689B7E9BB23A8A9A42B1D30023AB
:1028200018461837BD4680BDD0680000006900001A
:1028300090B589B000AF786039603B689B6B002B26
:1028400002D12A48FDF7E4FD0023FB8242E0FA8A28
:102850003B6853F83230002B02D12548FDF7D8FDF4
:10286000FB8ADB003A6813443B613B691B68BB6130
:102870000023FB83BB695B68002B16D0BB695B68D8
:10288000FB603B689C6B3B681A6AFB8ADBB2F968A9
:102890007868A047BB6900225A60BB695B889BB21D
:1028A00003F400539AB2BB695A803B69DA88FB8B08
:1028B0001146184600F0F2F80346FB833B691A689C
:1028C000FB8BDB001344BB61FB8B002BD2D1FB8A5B
:1028D0000133FB823B689B7E9BB2FA8A9A42B6D355
:1028E00000BF00BF2437BD4690BD00BF3C6900005B
:1028F0006869000080B582B000AF78600B46FB705D
:10290000FB78002B02D00A48FDF782FDBFF34F8F02
:1029100000BFFB78002B04D17B684FF080721A61F6
:1029200002E00448FDF774FD00BF0837BD4680BDD6
:10293000A4690000F069000080B584B000AF786041
:102940000B46FB70FB78002B02D00D48FDF760FDB5
:102950000023FB60BFF34F8F00BFFB78002B03D138
:102960007B681433FB6003E07B681433FB6000BFBB
:10297000FB6800221A6000BF1037BD4680BD00BF53
:10298000086A000080B584B000AF786039603B68A9
:10299000002B02D11848FDF73BFD7B68D3F8E430EB
:1029A000FB60FB681B0EDAB23B681A70FB681A0CFE
:1029B0003B680133D2B21A70FB681A0A3B680233D3
:1029C000D2B21A703B680333FA68D2B21A707B68CD
:1029D000D3F8E8301B0C9BB2FB60FB681A0A3B681B
:1029E0000433D2B21A703B680533FA68D2B21A7057
:1029F00000BF1037BD4680BD546A000080B588B066
:102A000000AFF860B9601346FB71BB68002B03D0C0
:102A1000BB681D4A934202D91C48FDF7F9FC00230C
:102A2000FB610023BB6100237B61BA68184B134430
:102A3000184AA2FB03235B0D013BBB61164ABB682E
:102A4000B2FBF3F303F109021349BB68B1FBF3F3E3
:102A5000B2FBF3F3013BFB61BB695B0003F07E0259
:102A6000FB691B0203F4E0631343FA79002A01D0E7
:102A7000802200E0002213437B61FB687A695A647C
:102A800000BF2037BD4680BD00D01213786A000019
:102A90003F4B4C006BCA5F6B00CA9A3B80B582B05B
:102AA00000AF03460A46FB801346BB80FA88BB880A
:102AB0009A4202D30848FDF7ABFCFB880133FB8048
:102AC000FA88BB889A4201D30023FB80FB88184612
:102AD0000837BD4680BD00BFC06A000080B58AB01F
:102AE00000AFF860B9601346FB71FB68002B02D1A0
:102AF0004148FDF78DFCBB68002B02D13F48FDF734
:102B000087FCFB79002B02D03D48FDF781FCBB68B8
:102B100000221A604FF408437B83FB79DB00FA68DC
:102B200013447B617B691A687B699B88DB001344D3
:102B30007B627B699B887B84002387F8213000239C
:102B4000FB617B6A5B889BB203F44043002B06D099
:102B5000012387F8213040F6A373FB613DE07B6AD7
:102B60001B889BB2002B06D1012387F8213040F649
:102B7000A173FB6131E07B6A5B889AB27B8B134067
:102B80009BB2B3F5006F14D1012387F821307B6A23
:102B90005B889BB203F03703002B03D040F6A17390
:102BA000FB611AE07B6A1B889BB21A46BB681A60FD
:102BB00013E07B69DA887B8C11461846FFF76EFFBD
:102BC00003467B847B691A687B8CDB0013447B6241
:102BD0007B699B887A8C9A42C1D197F8213083F027
:102BE0000103DBB2002B02D040F6A373FB61FB694B
:102BF00018462837BD4680BDE06A0000046B00001F
:102C0000286B000080B58EB000AFF860B9607A60C4
:102C10003B60BB68002B02D15A48FDF7F9FB97F8DF
:102C20004030002B02D05848FDF7F2FB00237B62B6
:102C300000237B63002387F8333097F84030DB00B4
:102C4000BA6813443B623B6A1A683B6A9B88DB00A4
:102C50001344FB623B6A9B88FB830023BB627B6857
:102C6000002B40F08180FB6A5B887B8297F84030C4
:102C70001A46B968F86800F089F87B8A03F40063A3
:102C8000002B79D13B6A1A683B6A9B88DB001344AE
:102C9000FB623B6A9B88FA8B9A42E4D16DE0FB6A47
:102CA0005B68BB617B687A6B13447B61FB6A5B8802
:102CB0009BB203F40063002B26D0012387F8333046
:102CC000FB6A1B889BB21A463B68934214D1FB6A8D
:102CD0001B889BB21A467B6BD31A7B627B69B969EE
:102CE0007A6A184603F047F897F840301A46B968F0
:102CF000F86800F04BF840E097F840301A46B968A1
:102D0000F86800F043F828E0002387F833307A6B46
:102D10003B689A4203D340F6A273BB622DE0786908
:102D2000B96997F84030BA6808335B0013449B8850
:102D30001A4603F020F897F84030BA6808335B0071
:102D400013449B881A467B6B13447B6397F840308F
:102D50001A46B968F86800F019F83B6A1A683B6AC5
:102D60009B88DB001344FB6297F8333083F0010348
:102D7000DBB2002B93D100E000BFBB6A18463837A6
:102D8000BD4680BD646B0000886B000080B586B0D6
:102D900000AFF860B9601346FB71BB68002B02D12D
:102DA0001D48FDF735FBFB79002B02D01B48FDF7D2
:102DB0002FFBFB79DB00BA6813447B617B691A68DF
:102DC0007B699B88DB0013443B613B695B889BB25A
:102DD00003F400539AB23B695A803B695B889BB20B
:102DE0006FEA43436FEA53439AB23B695A807B6967
:102DF0009A887B69DB8819461046FFF74FFE034629
:102E00001A467B699A80FB791946F868FFF772FDCC
:102E100000BF1837BD4680BDD46B0000F86B0000C2
:102E200080B590B000AFF860B9607A603B60BB6875
:102E3000002B02D19C48FDF7EBFA7B68002B02D1F6
:102E40009A48FDF7E5FA97F84830002B02D09848E9
:102E5000FDF7DEFA97F8482013465B0013449B0009
:102E60000833BA681344FB6297F8482013465B00A6
:102E700013449B002033BA6813440433BB6200231D
:102E80007B620023BB6300233B6200237B63002340
:102E900087F83330FB68D3F884301B0CC3F30D0381
:102EA000043B3A689A4203D940F6A5737B636BE111
:102EB000FB6A1A68FB6A9B88DB001344FB63FB6BAD
:102EC0005B889BB21BB2002B03DA40F6A6737B63D0
:102ED0005AE197F84830BA68134493F83030002B21
:102EE0000CD0B86A02F083FB034683F00103DBB227
:102EF000002B03D040F6A6737B6345E197F848307A
:102F0000BA6808335B001344DB881A463B68934277
:102F10005BD8FB6B5B68FB61FB693A6879681846B4
:102F200002F029FF3B689AB2FB6B1A80FB6B5B884F
:102F30009AB2604B13439AB2FB6B5A80FB6A9A8831
:102F4000FB6A5B8919461046FFF7A8FD03461A463F
:102F5000FB6A9A8097F84830BA68134493F8303087
:102F6000002B2BD0BB6A1A68BB6A9B889B0013445A
:102F70007B627B6A3A6D1A60BB6A9A88BB6A1B895E
:102F800019461046FFF78AFD03461A46BB6A9A8027
:102F9000BB6A9A88BB6ADB889A4202D1BB6A01226B
:102FA0009A7202F037FA7861FB6A1B899BB201338F
:102FB0009AB2FB6A1A81786902F03DFA97F84830B4
:102FC0001946F868FFF7B8FCDEE03A68BB6BD31A25
:102FD0003B62FB6B5B68FB617B68BA6B1344BB6154
:102FE000FB6A9A88FB6A5B8919461046FFF756FD13
:102FF00003461A46FB6A9A8097F84830BA68083345
:103000005B001344DB881A463B6A934254D9F86943
:10301000B96997F84830BA6808335B001344DB8815
:103020001A4602F0A8FE97F84830BA6808335B00E9
:103030001344DA88FB6B1A8097F84830BA68083373
:103040005B001344DB881A46BB6B1344BB63FB6B0A
:103050005B889BB23B613B6923F400633B613B6946
:1030600043F400433B613B699AB2FB6B5A8097F88B
:103070004830BA68134493F83030002B0CD002F07B
:10308000C9F97861FB6A1B899BB201339AB2FB6A6A
:103090001A81786902F0CFF997F848301946F86834
:1030A000FFF74AFC58E000BF446C0000686C000069
:1030B000886C00000088FFFFFB69B9693A6A18460E
:1030C00002F059FE3B6A9AB2FB6B1A80FB6B5B887D
:1030D0009AB2304B13439AB2FB6B5A8097F8483040
:1030E000BA68134493F83030002B2BD0BB6A1A68AF
:1030F000BB6A9B889B0013447B627B6A3A6D1A60B3
:10310000BB6A9A88BB6A1B8919461046FFF7C6FC42
:1031100003461A46BB6A9A80BB6A9A88BB6ADB88F8
:103120009A4202D1BB6A01229A7202F073F9786165
:10313000FB6A1B899BB201339AB2FB6A1A817869D8
:1031400002F079F997F848301946F868FFF7F4FB70
:10315000012387F833300DE0FB6A1A68FB6A9B880D
:10316000DB001344FB63FB6B5B889BB21BB2002B41
:10317000BFF62BAF97F8333083F00103DBB2002B9F
:1031800002D040F6A6737B637B6B18464037BD4682
:1031900080BD00BF0088FFFF90B58DB002AFF86022
:1031A000B9601346FB71FB79002B02D03C48FDF758
:1031B0002FF9FA7913465B0013449B000833BA6871
:1031C00013443B623B6A1A683B6ADB88DB001344AA
:1031D0007B62FA7913465B0013449B002033BA6884
:1031E00013440433FB610023BB614AE07B6A5B88C4
:1031F0009BB203F40063002B23D0FB691A68FB69C0
:10320000DB889B001344BB61FB69DA88FB691B897F
:1032100019461046FFF742FC03461A46FB69DA805E
:10322000FB6900229A72BB68DB69002B09D0BB687E
:10323000DC69BB681B6A0093BB690122B968F86846
:10324000A04702F0E7F878613B6A1B899BB2013B1B
:103250009AB23B6A1A81786902F0EDF83B6ADA8823
:103260003B6A5B8919461046FFF718FC03461A466D
:103270003B6ADA803B6A1A683B6ADB88DB001344EE
:103280007B627B6A5B889BB21BB2002B04DB3B6AD0
:103290001B899BB2002BA9D100BF2C37BD4690BD26
:1032A000D46C000090B589B002AF786039603B689B
:1032B000002B02D11D48FDF7ABF84FF040637B6156
:1032C00000233B6127E07B685B68FB607B687A6971
:1032D0005A603A683B69134430331B78002B0CD09A
:1032E000FB6803F00063002B07D03B69DBB21A4692
:1032F00039687868FFF750FF0DE03B68DB69002B09
:1033000009D03B68DC693B681B6A009300230122FB
:1033100039687868A0477B685A687B691340002B3E
:10332000D1D100BF00BF1C37BD4690BD206D00004D
:1033300090B587B002AF786039603B68002B02D14E
:103340001148FDF765F84FF04073FB6010E07B68B3
:10335000FA685A603B68DB69002B09D03B68DC697E
:103360003B681B6A00930023002239687868A047F5
:103370007B685A68FB681340002BE8D100BF00BF90
:103380001437BD4690BD00BF446D000090B587B0B6
:1033900002AF786039603B68002B02D11D48FDF711
:1033A00037F81D4BFB607B685B6803F40033002B30
:1033B00016D07B684FF400325A600021786802F022
:1033C0006DF83B68DB69002B20D03B68DC693B680B
:1033D0001B6A00930023032239687868A04715E030
:1033E0007B685B68FA681340FB607B68FA685A6028
:1033F0003B68DB69002B09D03B68DC693B681B6AD2
:1034000000930023022239687868A04700BF143770
:10341000BD4690BD686D000000007C6080B584B042
:1034200000AF78607868FEF751FDF8600A4AFB68E3
:1034300052F82330002B0AD0074AFB6852F8233099
:103440000649FA6851F8222011467868984700BF6B
:103450001037BD4680BD00BFB4340020A434002026
:1034600080B584B000AF78607868FEF72FFDF86013
:103470000B4AFB6852F82330002B0AD0084AFB683D
:1034800052F823300749FA6851F82220114678682B
:103490009847BFF34F8F00BF00BF1037BD4680BDB8
:1034A000A8340020A434002080B584B000AF786038
:1034B0007868FEF70BFDF8600A4AFB6852F8233083
:1034C000002B0AD0074AFB6852F823300649FA68F5
:1034D00051F8222011467868984700BF1037BD4642
:1034E00080BD00BFAC340020A434002080B584B07F
:1034F00000AF78607868FEF7E9FCF8600A4AFB687C
:1035000052F82330002B0AD0074AFB6852F82330C8
:103510000649FA6851F8222011467868984700BF9A
:103520001037BD4680BD00BFB0340020A434002059
:1035300080B500AF0348FFF793FFBFF34F8F00BF85
:1035400000BF80BD00000C4080B500AF0348FFF70E
:10355000ABFFBFF34F8F00BF00BF80BD00000C402A
:1035600080B500AF0348FFF7C1FFBFF34F8F00BF27
:1035700000BF80BD00000C4080B500AF0348FFF7DE
:103580004DFFBFF34F8F00BF00BF80BD00000C4058
:1035900080B483B000AF084B1B687B600023BA88FF
:1035A00062F30F03FA8862F31F4318460C37BD46D7
:1035B0005DF8047B704700BF8C6D000080B586B05D
:1035C00000AFF860B9603B601346FB71FB79042BD8
:1035D00018D801A252F823F0ED350000F3350000B1
:1035E00005360000F9350000FF35000001237B613E
:1035F0000BE002237B6108E004237B6105E00823E4
:103600007B6102E009237B6100BF3B6A002B02D093
:103610003B6A7869984700BF1837BD4680BD00BF38
:1036200080B588B000AFF860B9607A600023FB61B4
:103630007B681B7D002B02D14FF0FF33DFE0FB687E
:10364000013B042B00F2D68001A252F823F000BF08
:103650006536000085370000AF370000F537000001
:10366000D93700007B681B681B68D3F88430BB61C6
:103670007B681B681B68D3F8C4307B61BB6803F0B0
:103680000303002B02D0012B05D009E0BB6943F4F2
:103690000073BB6108E0BB6923F40073BB6103E006
:1036A0006FF00303FB6100BFFB69002B01D0FB69D6
:1036B000A5E0BB6803F00403002B02D0042B09D063
:1036C00011E0BB6943F00203BB617B6923F0040393
:1036D0007B610CE0BB6923F00203BB617B6943F0B3
:1036E00004037B6103E06FF00303FB6100BFFB6930
:1036F000002B01D0FB6982E0BB6803F06003002B64
:1037000002D06FF003037AE0BB6803F08003002B64
:1037100004D0BB6923F01003BB6103E0BB6943F035
:103720001003BB61BB6803F48073002B02D06FF001
:10373000030364E0BB6803F40073002B03D0BB6990
:1037400043F00803BB61BB6803F01003002B0CD0EF
:10375000BB6903F48073002B07D1BB6943F00103FD
:10376000BB61BB6923F00203BB617B681B681B68FC
:10377000BA69C3F884207B681B681B687A69C3F840
:10378000C4203BE0BB68002B06D07B681B681B682D
:103790004FF080725A6131E07B681B681B685A6980
:1037A0007B681B681B6822F080725A6126E0BB6848
:1037B000002B06D07B681B681B68184601F04BFF86
:1037C0001CE07B681B681B681A697B681B681B68A8
:1037D00022F080721A6111E07B681B681A68BB686E
:1037E000002B14BF01230023DBB21946104601F061
:1037F00040FF03E06FF00303FB6100BFFB69184665
:103800002037BD4680BD00BF90B595B002AF0346DE
:103810003960FB7100237B64FB79022B2BD0022BD8
:1038200000F38180002B02D0012B20D07BE03B688D
:103830001B7D03F00203002B79D03A68002102209F
:10384000FFF7EEFE3A6800210320FFF7E9FE3B6830
:103850001B681B68184601F0E1FE3B681B681B688B
:103860001846FEF71FFC3B6801221A755FE06FF0F7
:1038700003037B645EE03B681B7D002B02D14FF0AD
:10388000FF3358E03B681B7D03F00203002B50D14F
:1038900000237B6300233B8707F10C031846FEF7E8
:1038A00037FB01F01CFF0346FB6397F83D3003F044
:1038B0000C03DBB2002B02D10023BB7508E097F8A4
:1038C0003D3003F00C03DBB2042B01D10123BB75A7
:1038D0004FF060633B611823BB763B681B685B68F5
:1038E000984738643B681B6818683B6859683B68B0
:1038F0009C6807F10C023B6C019307F134030093C1
:103900002346FEF787FB3B6858683B68DB681A462E
:103910000B49FEF7DBFB3B681B7D43F00203DAB289
:103920003B681A7506E06FF003037B6402E000BF9A
:1039300000E000BF7B6C18464C37BD4690BD00BF11
:10394000BD35000080B586B000AFF8607B600B46E7
:10395000FB721346BB727B68002B02D12048FCF738
:1039600057FDFB681B684FF40001184601F0A9FEE3
:10397000FB681868F97ABA7A022301F013FE4FF651
:10398000FF737B610CE0FB681B68184601F08DFE3D
:10399000034603F40003002B06D17B69013B7B61E6
:1039A0007B69002BEFD100E000BF7B69002B02D1C7
:1039B0004FF0FF3310E0FB681B68184601F03EFE35
:1039C00003469AB27B681A80FB681B684FF40001BB
:1039D000184601F076FE002318461837BD4680BD14
:1039E000906D000080B582B000AF786000F030FFCD
:1039F0000449786801F096FE034618460837BD462C
:103A000080BD00BF5000002080B500AF02F0A5F9D6
:103A1000024801F09FFE0346184680BD500000207A
:103A200080B582B000AF0346FB71FB7904491846AC
:103A3000FFF7EAFE034618460837BD4680BD00BFC3
:103A40005000002080B582B000AF7860054A7B68E6
:103A500019461046FEF796FF002318460837BD4664
:103A600080BD00BF00000C4080B584B000AF78601E
:103A700007F1080306227968184602F07CF9064A25
:103A800007F108031946104601F035FD00231846DA
:103A90001037BD4680BD00BF00000C4080B584B02B
:103AA00000AFF860B9607A607B68BA68F96804486A
:103AB00001F0A3FE034618461037BD4680BD00BF87
:103AC0005000002080B500AF024801F0D2FE03464E
:103AD000184680BD5000002080B582B000AF7860ED
:103AE00039603A687968044801F0E9FE03461846EF
:103AF0000837BD4680BD00BF5000002080B582B0B1
:103B000000AF78603960054A39687868FFF788FD4A
:103B1000034618460837BD4680BD00BF5000002050
:103B200080B582B000AF0346FB710B46BB711346F4
:103B3000BB80BB88BA79F979034801F019FE0346C6
:103B400018460837BD4680BDAC6D000080B582B018
:103B500000AF03463A60FB710B46BB71BA79F97945
:103B60003B680448FFF7EEFE034618460837BD469B
:103B700080BD00BFAC6D000080B483B000AF084BC7
:103B80001B687B600023BA8862F30F03FA8862F334
:103B90001F4318460C37BD465DF8047B704700BFD5
:103BA000F86D000080B586B000AF786039607B6842
:103BB0001B681B681846FEF789F90346224A52F82B
:103BC0002330184601F0CCFE7B681B685B68984781
:103BD00038617B681B681B68002239691846FEF74C
:103BE0000DFF4FF400420021184801F0E3FE786118
:103BF0007B69002B23D107F10C031A4600211348DF
:103C000001F0EAFE78617B69002B18D1FB6823F490
:103C10004453FB603B68042B03D1FB6843F480737F
:103C2000FB603B68012B03D1FB6843F40053FB604E
:103C3000FB681A460021054801F0BCFE78617B69EB
:103C400018461837BD4680BD4C6600001C00002099
:103C500080B586B000AF78600B46FB707B681B6850
:103C60001846FEF733F97861214A7B6952F8233010
:103C7000184601F075FE7B685B68984738617B6881
:103C80001B68002239691846FEF7B8FEFB78002B46
:103C900011D007F10C031A460021164801F09CFED2
:103CA000FB6843F40063FB60FB681A46002111487F
:103CB00001F080FE17E007F10C031A4600210D48C1
:103CC00001F08AFEFB6823F40063FB60FB681A4680
:103CD0000021084801F06EFE07F10C031A4600218E
:103CE000044801F079FE00BF1837BD4680BD00BF13
:103CF0004C6600001C00002080B588B000AF034671
:103D0000FB7107F1100300221A605A600023FB7355
:103D1000FB79002B2ED0022B35D11F4B1B689B68E3
:103D20003B610123BB7507F1100319461B4801F0E5
:103D300031FEF861FB69002B12D1194BBB6107F111
:103D40000F031946154801F059FEFB7B002B06D1E5
:103D5000BB69013BBB61BB69002BF0D100E000BF38
:103D6000FB7B002B02D00023FB6110E04FF0FF3300
:103D7000FB610CE0084B1B6801211846FFF768FF48
:103D80000023FB6103E06FF00303FB6100BFFB69ED
:103D900018462037BD4680BD680000201C0000206A
:103DA00000350C0080B588B000AF78600023FB615F
:103DB00007F1100300221A605A600023FB737B682E
:103DC000022B02D07B68202B02D16FF003034BE063
:103DD0007B68102B07D1012301220121244801F027
:103DE0003FFEF86133E07B68082B2BD1214B1B6829
:103DF0009B683B610123BB7507F1100319461C4802
:103E000001F0C8FDF861FB69002B20D11A4BBB61A2
:103E100007F10F031946164801F0F0FDFB7B002B5C
:103E200006D1BB69013BBB61BB69002BF0D100E04F
:103E300000BFFB7B83F00103DBB2002B07D0012323
:103E4000FB6104E079680B48FFF7ACFEF861094AB2
:103E50007B685360FB69002B02D10023FB6102E009
:103E60004FF0FF33FB61FB6918462037BD4680BD2C
:103E70001C0000206800002000350C0080B584B0D4
:103E800000AF0023FB71FB1D19460A4801F0C6FD77
:103E9000B860BB68002B05D1FB79002B02D0012351
:103EA000FB7301E00023FB73FB7B18461037BD4614
:103EB00080BD00BF1C00002080B584B000AF00238F
:103EC000BB60BA1DFB1D1946164801F0B7FDF8602E
:103ED000FB68002B21D1FB79002B04D1BB686FF369
:103EE0000103BB600DE0FB79012B05D1BB6801220A
:103EF00062F30103BB6004E0BB68022262F30103CA
:103F0000BB60BB79012B04D1BB6843F00403BB60E9
:103F100003E0BB686FF38203BB60BB6818461037D1
:103F2000BD4680BD1C00002080B584B000AF786025
:103F30000623BB600023FB6009E00E4AFB6852F8D1
:103F400023307A689A4207D0FB680133FB60FA6835
:103F5000BB689A42F1D300E000BFFA68BB689A429E
:103F600002D30548FCF754FAFB6818461037BD46E3
:103F700080BD00BF286E0000586E000080B58AB07A
:103F800000AFF860B9607A60BB68002B02D14E4880
:103F9000FCF73EFABB681B68002B02D14B48FCF7CC
:103FA00037FAFB684A4A934219D0FB68494A934260
:103FB00013D0FB68484A93420DD0FB68474A9342AE
:103FC00007D0FB68464A934201D1012308E0FF2352
:103FD00006E0012304E0012302E0082300E00823B7
:103FE000BA689279934202DA3E48FCF711FAFB680C
:103FF000374A934219D0FB68364A934213D0FB6884
:10400000354A93420DD0FB68344A934207D0FB688F
:10401000334A934201D1012308E0FF2306E0012344
:1040200004E0012302E0082300E00823BA68D27903
:10403000934202DA2C48FCF7EBF900237B62002361
:1040400087F823300023FB61BB681B681B017A687B
:10405000B2FBF3F37B627B6A002B01D101237B620D
:104060000023BB617B685A00BB681B68B2FBF3F29C
:104070007B6A5B01D31A7B617B685A007B6A5901BA
:104080007B690B44B2FBF3F3BB61BB681B68BA6985
:104090009A4204D9BB681B68BA69D31A03E0BB68AB
:1040A0001A68BB69D31AFB61BB681B680F4AA2FB85
:1040B00003235A0913465B001344FA699A4217D93D
:1040C00040F2F533CEE000BF846E0000A46E000025
:1040D00000A0064000B0064000C0064000D00640E8
:1040E00000A00E40D06E0000286F00001F85EB512D
:1040F000F868FFF719FF03465C4A52F82330184668
:1041000001F0EFFCFB68DB78DBB223F00C03DAB2E2
:10411000FB68DA70FB681B78DBB25BB223F01F032D
:104120005AB27B6A1B0A5BB213435BB2DAB2FB681A
:104130001A707B6ADAB2FB685A70FB689B7ADBB252
:1041400023F01F03DAB27B69DBB203F01F03DBB29B
:104150001343DAB2FB689A72FB689B78DBB223F0F8
:10416000170387F82330BB689B7A9B00DBB203F010
:104170000403DAB297F82330134387F82330BB687F
:104180001B79002B09D0BB681A7997F823301343A9
:10419000DBB243F0100387F82330FB6897F8232045
:1041A0009A70FB681B78DBB25BB223F020035AB233
:1041B000BB685B795B01DBB25BB203F020035BB2EF
:1041C00013435BB2DAB2FB681A70BB689A79FB687A
:1041D000DA74BB68DA79FB685A75FB681B7CDBB262
:1041E00063F07703DAB2FB681A74FB685B7CDBB2BE
:1041F00063F03F03DAB2FB685A74BB681B7A002B8A
:1042000007D0FB685B7BDBB243F00803DAB2FB68E4
:104210005A73BB685B7A002B07D0FB685B7BDBB211
:1042200043F00103DAB2FB685A73FB68DB7887F866
:104230002330BB68DB7A002B05D097F8233043F09E
:10424000080387F82330BB681B7B002B05D097F849
:10425000233043F0040387F82330FB6897F82320CA
:10426000DA70002318462837BD4680BD406E000036
:1042700080B582B000AF78607B68002B02D1154812
:10428000FCF7C6F810220021786801F076FD7B6803
:104290004FF4E1321A607B6800221A717B680022B9
:1042A0005A717B6800229A717B680122DA717B68FF
:1042B00000221A727B6800225A727B6800229A726E
:1042C0007B680022DA727B6800221A7300BF08370D
:1042D000BD4680BD806F000080B586B000AFF8603D
:1042E000B9607A60BB68002B02D13948FCF790F8BE
:1042F00000237B6160E0F86801F00DFC38613B69E8
:1043000003F00803002B0DD00821F86801F027FC0A
:104310000346002B02D140F2F13301E040F2EE33CC
:104320007B613FE03B6903F00103002B0CD00121CE
:10433000F86801F014FC0346002B02D14FF47D73A2
:1043400001E040F2EE337B613B6903F00203002B96
:104350000CD00221F86801F002FC0346002B02D1C8
:1043600040F2F33301E040F2EE337B613B6903F04E
:104370000403002B0CD00421F86801F0F0FB034685
:10438000002B02D140F2F23301E040F2EE337B61C8
:104390007B69002B05D1FB689B7DDBB2002BAAD08B
:1043A00000E000BF7B69002B0CD1BB685A1CBA60CF
:1043B000FA68D279D2B21A707B685A1E7A60002BE2
:1043C000E9D100E000BF7B6918461837BD4680BDC3
:1043D000A06F000080B500AF054B1B68054A12684E
:1043E000114605489847BFF34F8F00BF00BF80BDFF
:1043F000543500203C35002000A0064080B500AFB9
:10440000054B1B68054A5268114605489847BFF39B
:104410004F8F00BF00BF80BD543500203C350020C9
:1044200000B0064080B500AF054B1B68054A926896
:10443000114605489847BFF34F8F00BF00BF80BDAE
:10444000543500203C35002000C0064080B500AF48
:10445000054B1B68054AD268114605489847BFF3CB
:104460004F8F00BF00BF80BD543500203C35002079
:1044700000D0064080B500AF054B1B68054A1269A5
:10448000114605489847BFF34F8F00BF00BF80BD5E
:10449000543500203C35002000A00E4080B500AF10
:1044A000054B1B68054A5269114605489847BFF3FA
:1044B0004F8F00BF00BF80BD543500203C35002029
:1044C00000B00E4080B500AF0B4BD3F888300A4ADD
:1044D00043F47003C2F88830084B4CF22052DA8162
:1044E000064B4DF62812DA81044B4FF4E9721A801C
:1044F00001F0D3FB00BF80BD00ED00E000200540CF
:1045000080B588B000AF786039607B68002B02D13D
:104510004048FBF77DFF3B68002B02D13E48FBF78C
:1045200077FF3B689B7B052B02D93C48FBF770FF6C
:104530003B689B7B1A463A4B53F82230002B02D142
:104540003848FBF765FF07F108031846FFF790FEB0
:104550003B685B68BB603B681B7A022B02D102237D
:104560003B7308E03B681B7A032B02D103233B73A8
:1045700001E000233B733B685B7A012B02D10123EE
:104580007B7301E000237B733B689B7A002B14BF95
:1045900001230023DBB23B753B68DB7A002B14BFA1
:1045A00001230023DBB2FB743B681B7B002B14BF91
:1045B00001230023DBB23B743B685B7B002B14BF01
:1045C00001230023DBB27B740023BB730123FB7345
:1045D0003B689B7B1A46124B53F822003B681A68D3
:1045E00007F108031946FFF7C9FCF861FB69002BC6
:1045F00004D0F86901F058FB034606E07B68BB6114
:104600003B689A7BBB691A70002318462037BD4669
:1046100080BD00BFD86F0000F86F00001870000068
:10462000C06F00007870000080B586B000AFF86001
:10463000B9607A60FB68002B02D11248FBF7E8FEF4
:10464000BB68002B02D11048FBF7E2FE7B68002B11
:1046500002D10E48FBF7DCFEFB687B617B691B78AF
:104660001A460B4B53F822307A68B9681846FFF7A0
:1046700033FE3861386901F017FB034618461837D6
:10468000BD4680BDB8700000D8700000F870000012
:10469000C06F000080B586B000AFF860B9607A6086
:1046A000FB68002B02D11048FBF7B2FEBB68002B61
:1046B00002D10E48FBF7ACFE7B68002B02D10C4800
:1046C000FBF7A6FEFB687B617B691B781A46094BEA
:1046D00053F822307A68B968184601F080FA00234E
:1046E00018461837BD4680BD1871000038710000AB
:1046F00058710000C06F000080B400AF054B03F597
:1047000080531A464FF09273536400BFBD465DF864
:10471000047B70470070044080B483B000AF7860C1
:10472000044A7B68136000BF0C37BD465DF8047B0C
:10473000704700BF5C34002080B483B000AF0346F4
:10474000FB710B4B1B78DBB223F03803DAB2FB7939
:10475000DB00DBB203F03803DBB205491343DBB205
:104760000B7000BF0C37BD465DF8047B704700BF7F
:104770000040064080B500AFFFF7BEFF0F48FDF7D1
:10478000BDF80F4B1846FFF7C7FF02230021002298
:104790001846FCF7EDFF00231846FFF7CDFF002376
:1047A000084A00211846FDF743F90748FCF7C8FE00
:1047B000064B074A1A6000BF80BD00BF8C71000025
:1047C00080F0FA0280710000847100007000002007
:1047D000000E270780B586B000AFF860B9607A6038
:1047E0007B68002B02D10848FBF712FEBB689B00D8
:1047F000FA6813447B617B697A6812881A8000BF6B
:104800001837BD4680BD00BF9471000080B500AF71
:104810000C4801F06BFA032210210B4801F080FADA
:1048200003221121084801F07BFA084B03F580535D
:104830001B69064A23F0030302F58052136100BF8F
:1048400080BD00BF0A00381000A004400070044082
:1048500080B582B000AF2C4801F048FA2B4801F037
:1048600045FA2B4801F042FA04220C21294801F0B4
:1048700057FA04220D21274801F052FA04220E2192
:10488000244801F04DFA04220F21224801F048FA91
:10489000042210211F4801F043FA042211211D486F
:1048A00001F03EFA042205211A4801F039FA0023EA
:1048B000BB803B7943F003033B713B7943F020031A
:1048C0003B717B79042262F302037B713B1D1A4624
:1048D00000211148FFF77EFF042201210E4801F05C
:1048E0001FFA042210210D4801F01AFA04221121A6
:1048F0000A4801F015FA04221221084801F010FAC2
:1049000000BF0837BD4680BD090038100A003810C6
:104910000B0038100090044000A0044000B0044098
:10492000F8B5304F3C68002851D10020F8BD23680D
:10493000B3F1805F39D1D4E9013151B10D68B5F1DE
:10494000805F06D1DD1C4B682B4463608B68A360DD
:10495000F1E7B34207DB734505DC20464FF0005317
:1049600040F80C3BE2E7634511D920464FF0005573
:10497000666040F80C5B22F0030542199B1BA260A5
:10498000033B4FF080544451C2E90131CEE761B995
:10499000A0EB830000F064F80130C6D04FF0005364
:1049A000C4E9003604F10C00C0E72546A468002CD9
:1049B000BDD10C3000F054F8431CB6D04FF000537A
:1049C000C0E90036846055B938600C30AEE7C21CCF
:1049D0009608002506F10A0C06F1030EE7E7A86029
:1049E000F3E700BF5C35002010B5174A17490020D7
:1049F00001F020FA4FF480734FF4806200211248D6
:104A000001F0D5F9124A1349012001F013FA4FF4CD
:104A100080730F484FF48062002101F0C8F90E4BFB
:104A20001B68022B0EDD0D4A0A49022001F002FA32
:104A3000BDE8104009484FF480734FF480620021B4
:104A400001F0B5B910BD00BF643500201872000038
:104A5000A03500201A72000014720000DC3500201E
:104A600070B50B4D2B680BB90A4B2B6003302E68C9
:104A700020F003043444204600F0CEF810B92C6036
:104A8000304670BD044B0C221A604FF0FF36F7E73A
:104A9000583500201836002060350020F8B504464F
:104AA00038B90B4B0B4E1F680546A74205DC28465C
:104AB000F8BDBDE8F84001F027BA304601F024FA0D
:104AC000002818BF4FF0FF3501343C36EDE700BF3A
:104AD00014720000643500202DE9F843C6683C4B91
:104AE000334004460D4690461BB902273846BDE8C0
:104AF000F883D0F81490484601F063FB074600287D
:104B0000F3D1B8F1010F2CD0B8F1020F2ED0B8F1CB
:104B1000000FEAD1002DE8DBB00404D52368E26A77
:104B20009A4238BFE362A169A9420EDC2368E26AB7
:104B3000934238BF134622695818801AA84204DBF2
:104B4000206B01EB000CAC4531DC0023C4E90133E0
:104B500046F02006A56226F4032626F04006E6600D
:104B6000C4E7204600F036F80544D3E7484601F094
:104B700025FBB0F1000CE26804DA42F08002E2604A
:104B80000127B3E72168A369E06A81422CBF5B1863
:104B90001B1821699206A3EB010303D5A26A934275
:104BA000B8BF13466345ACBFED186544B2E76D1A54
:104BB000B10744BF281AA060F10744BF9B1AEB1A43
:104BC000154448BF6360256026F02006C3E700BF98
:104BD00003001000C3689A0705D10E4B21221A600A
:104BE0004FF0FF30704703F020021B0309D512B1CC
:104BF000806A013870470368826900691344181A93
:104C0000F7E70AB1806A7047036882690069134454
:104C1000181A704760350020044B23B1984234BF06
:104C20000020012070471846704700BF184600203A
:104C30002DE9F041D5685769EB0280460E461446CF
:104C400005D5384601F0BAFA45F01005A061124BBF
:104C50002B408BB1A169384601F0B9FA002806DA79
:104C6000E36843F08003E3604FF0FF3011E025F488
:104C7000003525F01005E56032464146384601F022
:104C8000ACFA20F00041761AA1690E44A661002812
:104C9000E6D1BDE8F08100BF100002000FB480B57E
:104CA00082B000AF00237B6007F114033B603968DA
:104CB0003869FBF7F3FB78607B6818460837BD4618
:104CC000BDE8804004B0704780B586B000AFB960E1
:104CD0007A603B600346FB73BB687B610BE0FA7B49
:104CE0003B6A104698473B681B685A1C3B681A6031
:104CF0007B6901337B617A697B689A42EFDB00BF95
:104D000000BF1837BD4680BD80B48FB000AFF860DB
:104D1000B9607A603B600023FB62FB68BB62BB6AE0
:104D20005A1CBA6200221A7000237B6000237B6247
:104D300000233B620023FB6100237B630023BB61F4
:104D400000233B6300237B61BB681B687B637B6B39
:104D5000002B30D1BB6A30221A70FB6A0133FB6230
:104D6000FB6A2CE03B687A6BB2FBF3F3BB613B68F8
:104D7000BA6902FB03F37A6BD31A3B633B6B092BD3
:104D800003D83B6B30333B630AE097F84030002B8D
:104D900001D0412200E061223B6B13440A3B3B639C
:104DA000BB697B63BB6A5A1CBA623A6BD2B21A7097
:104DB000FB6A0133FB627B6B002BD3D1FB6A184685
:104DC0003C37BD465DF8047B704708B5FCF780FFB3
:104DD00008BD08B5FCF78AFF08BD08B5FCF794FFCD
:104DE00008BD08B5FCF79EFF08BD08B5FCF7A8FF95
:104DF00008BD08B5FCF7B2FF08BD08B5FCF7BCFF5D
:104E000008BD08B5FCF7C6FF08BD08B5FCF7D0FF24
:104E100008BD08B5FCF7DAFF08BD08B5FCF7E4FFEC
:104E200008BD08B5FCF7EEFF08BD08B5FCF7F8FFB4
:104E300008BD08B5FDF702F808BD08B5FDF70CF888
:104E400008BD08B5FDF716F808BD08B5FBF709FA67
:104E500008BD08B5FBF705FA08BD08B5FBF701FA70
:104E600008BD08B5FBF7FDF908BD08B5FBF7F9F972
:104E700008BD08B5FBF7F5F908BD08B5FBF7F1F972
:104E800008BD08B5FBF7EDF908BD08B5FBF7E9F972
:104E900008BD08B5FBF7E5F908BD08B5FBF7E1F972
:104EA00008BD08B5FBF7DDF908BD08B5FBF7D9F972
:104EB00008BD08B5FBF7D5F908BD08B5FBF7D1F972
:104EC00008BD08B500F0B3FE08BD08B5FBF7C9F989
:104ED00008BD08B500F0B4FE08BD08B5FBF7C1F980
:104EE00008BD08B500F0B5FE08BD08B5FBF7B9F977
:104EF00008BD08B500F0B6FE08BD08B5FBF7B1F96E
:104F000008BD08B5FBF7ADF908BD08B5FBF7A9F971
:104F100008BD08B5FBF7A5F908BD08B5FBF7A1F971
:104F200008BD08B5FBF79DF908BD08B5FBF799F971
:104F300008BD08B5FBF795F908BD08B5FBF791F971
:104F400008BD08B5FBF78DF908BD08B5FBF789F971
:104F500008BD08B5FBF785F908BD08B5FBF781F971
:104F600008BD08B5FBF77DF908BD08B5FBF779F971
:104F700008BD08B5FBF775F908BD08B5FBF771F971
:104F800008BD08B5FBF76DF908BD08B5FBF769F971
:104F900008BD08B5FBF765F908BD08B5FBF761F971
:104FA00008BD08B5FBF75DF908BD08B5FBF759F971
:104FB00008BD08B5FBF755F908BD08B5FBF751F971
:104FC00008BD08B5FBF74DF908BD08B5FBF749F971
:104FD00008BD08B5FBF745F908BD08B500F04BFE64
:104FE00008BD08B5FBF73DF908BD08B500F04CFE5B
:104FF00008BD08B5FBF735F908BD08B5FBF731F971
:1050000008BD08B5FBF72DF908BD08B5FBF729F970
:1050100008BD08B5FBF725F908BD08B5FBF721F970
:1050200008BD08B5FBF71DF908BD08B5FBF719F970
:1050300008BD08B5FBF715F908BD08B5FBF711F970
:1050400008BD08B5FBF70DF908BD08B5FBF709F970
:1050500008BD08B5FBF705F908BD08B5FEF78CFAE1
:1050600008BD08B5FEF764FA08BD08B5FEF76CFA8E
:1050700008BD08B5FEF774FA08BD80B483B000AF70
:1050800078600B46FB70FB78002B06D07B681B68B2
:1050900043F001027B681A6005E07B681B6823F01F
:1050A00001027B681A6000BF0C37BD465DF8047BC7
:1050B000704780B500AF0020FCF7A2F90346184600
:1050C00080BD04207146084202D0EFF3098001E060
:1050D000EFF3088081690A884BF6AB639A4200D0EF
:1050E000FEE70231816120210160704700BF80B579
:1050F00082B000AF78607B689B681B6878689847CF
:1051000000BF0837BD4680BD90B585B000AFF860E0
:10511000B9607A603B60FB689B685C683B687A6852
:10512000B968F868A047034618461437BD4690BDD5
:1051300090B585B000AFF860B9607A603B60FB68FD
:105140009B689C683B687A68B968F868A047034622
:1051500018461437BD4690BD80B584B000AFF860E6
:10516000B9607A60FB685868FB6819687B68BA6840
:10517000FFF7CAFF034618461037BD4680BD80B50D
:1051800084B000AFF860B9607A60FB685868FB686B
:1051900019687B68BA68FFF7CBFF034618461037DB
:1051A000BD4680BD80B485B000AF78607B681B0CC5
:1051B00003F1804303F58E23FB60FB6819687B686D
:1051C0009BB201229A40FB680A431A6000BF143761
:1051D000BD465DF8047B704780B483B000AF786053
:1051E0007B681B6C9BB218460C37BD465DF8047B90
:1051F000704780B483B000AF78607B685B68184606
:105200000C37BD465DF8047B704780B483B000AFB7
:10521000786039607B683A685A6000BF0C37BD46D9
:105220005DF8047B704780B58AB002AFF860B96062
:105230007A603B60FB68FB61FB691B68BB61002314
:105240007B614FF40001B869FFF7DFFF3B68009313
:1052500001237A68B968B86900F07CF9B86900F090
:1052600010F878617B69002B01D07B6905E04FF471
:105270000001B869FFF7C9FF7B6918462037BD46B2
:1052800080BD80B584B000AF78600023FB6000BFB4
:105290007868FFF7AEFF034603F40003B3F5000F91
:1052A000F6D1FB6818461037BD4680BD80B485B086
:1052B00000AF786039607B681B78FB73FB7B03F081
:1052C0005F03FB733B681A78FB7B1343FB737B68BC
:1052D000FA7B1A7000BF1437BD465DF8047B704737
:1052E00080B485B000AF78600B46FB707B681B789C
:1052F000FB73FB7B23F00F03FB73FA7BFB781343F9
:10530000FB737B68FA7B1A7000BF1437BD465DF8EB
:10531000047B704780B500AFFBF7E4FE03461846F8
:1053200080BD80B582B000AFFBF798FF3860FCF716
:1053300021F90346DB083A689A4205D83B68002BFE
:1053400002D03B687B6001E000237B607B681846ED
:105350000837BD4680BD80B483B000AF78607B68FD
:105360001846A0F101000028FBD100BF0C37BD4654
:105370005DF8047B704780B485B000AF78607B68CF
:105380001B0C03F1804303F58E23FB60FB68196857
:105390007B689BB201229A40FB680A431A6000BFF7
:1053A0001437BD465DF8047B704780B485B000AF0C
:1053B00078607B681B0C03F1804303F58E23FB6050
:1053C000FB6819687B689BB2012202FA03F3DA4397
:1053D000FB680A401A6000BF1437BD465DF8047BC5
:1053E000704780B584B000AF0346FB710023FB60BB
:1053F00097F9073013F1800F02D10123FB6004E01D
:1054000097F907301846FCF743FDFB68184610373C
:10541000BD4680BD80B483B000AFEFF310833B6026
:105420003B687B6072B600BF7B6818460C37BD4690
:105430005DF8047B704780B485B000AF78607B680E
:10544000FB60FB6883F3108800BF00BF1437BD46C4
:105450005DF8047B704780B483B000AF78607B68F0
:105460005B6A43F001027B685A6200BF0C37BD469D
:105470005DF8047B704780B483B000AF78607B68D0
:105480005B6C03F07E03002B14BF01230023DBB20F
:1054900018460C37BD465DF8047B704780B483B076
:1054A00000AF78600B46FB70FB78002B06D07B6862
:1054B0005B6A43F00C027B685A6205E07B685B6ABA
:1054C00023F00C027B685A6200BF0C37BD465DF8C2
:1054D000047B704780B483B000AF786039607B682C
:1054E0009A683B681A437B689A6000BF0C37BD46D8
:1054F0005DF8047B704780B485B000AF7860396098
:105500003B681B781A063B6801331B781B041A435F
:105510003B6802331B781B0213433A68033212784C
:105520001343FB607B68FA68C3F8E4203B680433EC
:105530001B781B023A68053212781343FB60FB6844
:105540001A047B68C3F8E82000BF1437BD465DF835
:10555000047B704780B487B000AFF860B9607A60B0
:10556000FB7000237B61FB781B0703F04052BB6894
:10557000DB0503F078631A437B689B0403F4F803AC
:105580001A433B6A9BB2134343F0804343F4003316
:105590007B61FB687A691A6400BF1C37BD465DF801
:1055A000047B704780B487B000AFF860B9607A6060
:1055B000FB7000237B61FB781B0703F04052BB6844
:1055C000DB0503F078631A437B689B0403F4F8035C
:1055D000134343F0804343F400337B61FB687A69F3
:1055E0001A6400BF1C37BD465DF8047B704780B469
:1055F00083B000AF78607B689B7A002B14BF0123D7
:105600000023DBB283F00103DBB203F00103DBB262
:1056100018460C37BD465DF8047B704780B483B0F4
:1056200000AF78607B685B6A43F001027B685A6276
:1056300000BF0C37BD465DF8047B704780B483B073
:1056400000AF78607B681B6C9BB218460C37BD4678
:105650005DF8047B704780B483B000AF78607B68EE
:105660004FF080721A6100BF0C37BD465DF8047BB5
:10567000704780B483B000AF78600B46FB70FB7856
:10568000002B06D07B685B6A43F00C027B685A6291
:1056900005E07B685B6A23F00C027B685A6200BFFE
:1056A0000C37BD465DF8047B704780B483B000AF13
:1056B00078607B685B6818460C37BD465DF8047BF4
:1056C000704780B483B000AF786039607B683A6817
:1056D0005A6000BF0C37BD465DF8047B704780B44C
:1056E00000AF002343F0010343F0040343F0080339
:1056F00043F0100343F0200343F0400343F08003E2
:1057000043F4807343F40073012262F38B2343F468
:10571000005343F4804343F400431846BD465DF80C
:10572000047B704780B483B000AF786039603B6819
:105730001B7D03F00103002B05D13B687A68DA601A
:105740003B6801221A75002318460C37BD465DF8E8
:10575000047B704780B483B000AF78607B68002220
:105760001A75002318460C37BD465DF8047B704758
:1057700080B586B002AF7860084611461A460346E7
:10578000FB700B46BB7013463B807B681B684FF475
:1057900000011846FFF795FF7B681868F978BA781A
:1057A0003B8800930123FFF7D5FE4FF6FF73FB60A4
:1057B0000CE07B681B681846FFF777FF034603F48D
:1057C0000003002B06D1FB68013BFB60FB68002B4C
:1057D000EFD100E000BFFB68002B02D14FF0FF3398
:1057E00007E07B681B684FF400011846FFF769FF6C
:1057F000002318461037BD4680BD80B58AB004AF7F
:10580000F860B9607A603B603B6803F00503002BE9
:1058100002D04FF0FF3328E0FB681B681868FB6874
:1058200059680023029300230193002300937B68AF
:10583000BA68FDF7F5FA78617B6940F6A572934284
:1058400002D16FF0040310E07B6940F6A672934228
:1058500002D16FF0010308E07B6940F6A772934222
:1058600002D14FF0FF3300E0002318461837BD4641
:1058700080BD80B586B002AF78600023BB607B68D6
:105880005B6807F1080100221846FDF727F9F86068
:10589000FB6840F6A17293420CD17B681B681868C4
:1058A0007B685968002301930023009300230022A2
:1058B000FDF7A8F9BB6818461037BD4680BD80B516
:1058C00088B002AFF860B9607A60FB681B6818683E
:1058D000FB68596800230193002300937B68BA6832
:1058E000FDF790F978617B69002B02D04FF0FF3310
:1058F00000E07B6818461837BD4680BD80B483B091
:1059000000AF786039606FF0030318460C37BD466E
:105910005DF8047B704780B483B000AF78606FF0AF
:10592000030318460C37BD465DF8047B704780B40E
:1059300083B000AF78606FF0030318460C37BD46A4
:105940005DF8047B704780B483B000AF7860396045
:105950006FF0030318460C37BD465DF8047B7047B3
:1059600080B485B000AF78607B681B0C03F1804386
:1059700003F58E23FB60FB6819687B689BB20122EC
:105980009A40FB680A431A6000BF1437BD465DF8B1
:10599000047B704780B582B000AF786039607B6867
:1059A0009B681B683968786898470346184608372B
:1059B000BD4680BD80B584B000AFF860B9607A6044
:1059C000FB689B685B687A68B968F8689847034623
:1059D00018461037BD4680BD80B584B000AFF86072
:1059E000B9607A60FB689B689B687A68B968F868F8
:1059F0009847034618461037BD4680BD80B582B033
:105A000000AF786039607B689B68DB6839687868CC
:105A10009847034618460837BD4680BD80B582B01A
:105A200000AF786039607B689B681B69396878686B
:105A30009847034618460837BD4680BD80B584B0F8
:105A400000AFF860B9607A60FB689B685B697A6850
:105A5000B968F8689847034618461037BD4680BDB8
:105A600090B583B000AF7860084611461A460346E9
:105A7000FB700B46BB7013467B707B689B68DC69D0
:105A80007B78BA78F9787868A047034618460C37CF
:105A9000BD4690BD80B483B000AF7860396000230C
:105AA00018460C37BD465DF8047B704780B400AFE4
:105AB00000231846BD465DF8047B704780B485B06E
:105AC00000AF78600023FB607B68022B02D16FF08F
:105AD0000303FB60FB6818461437BD465DF8047B82
