:1000000000000320D501000051020000C95C00007F
:1000100055020000570200005902000000000000D5
:100020000000000000000000000000005B02000073
:100030005D020000000000005F020000610200009D
:10004000075900000F590000175900001F59000000
:10005000275900002F590000375900003F59000070
:10006000475900004F590000575900005F590000E0
:10007000675900006F590000775900007F59000050
:10008000875900008F590000975900009F590000C0
:10009000A7590000AF590000B7590000BF59000030
:1000A000C7590000CF590000D7590000DF590000A0
:1000B000E7590000EF590000F7590000FF59000010
:1000C000075A00000F5A0000175A00001F5A00007C
:1000D000275A00002F5A0000375A00003F5A0000EC
:1000E000475A00004F5A0000575A00005F5A00005C
:1000F000675A00006F5A0000775A00007F5A0000CC
:10010000875A00008F5A0000975A00009F5A00003B
:10011000A75A0000AF5A0000B75A0000BF5A0000AB
:10012000C75A0000CF5A0000D75A0000DF5A00001B
:10013000E75A0000EF5A0000F75A0000FF5A00008B
:10014000075B00000F5B0000175B00001F5B0000F7
:10015000275B00002F5B0000375B00003F5B000067
:10016000475B00004F5B0000575B00005F5B0000D7
:10017000675B00006F5B0000775B00007F5B000047
:10018000875B00008F5B0000975B00009F5B0000B7
:10019000A75B0000AF5B0000688700000000002044
:1001A000E8000000688700000000FF1F000000005A
:1001B000688700000000001400000000F00000202C
:1001C000684300000000FF1F000000000000001452
:1001D0000000000072B604F013FF0E4B07E003F1BD
:1001E0000C049A685968186800F01AF823460A4AFD
:1001F0009342F4D306E01C46596854F8080B00F00B
:100200001EF82346054A9342F5D362B607F09DF8DF
:10021000FEE700BF98010000BC010000D40100000F
:10022000002393420AD210B450F8044B41F8044B17
:1002300004339342F8D35DF8044B704770470023B2
:1002400003E0002240F8042B04338B42F9D37047BB
:10025000FEE7FEE7FEE7FEE7FEE7FEE7FEE7FEE776
:10026000FEE7FEE7FFFFFFFFFFFFFFFFFFFFFFFFD0
:10027000FFFFFFFFFFFFFFFFFFFFFFFFFFFFFFFF8E
:10028000FFFFFFFFFFFFFFFFFFFFFFFFFFFFFFFF7E
:10029000FFFFFFFFFFFFFFFFFFFFFFFFFFFFFFFF6E
:1002A000FFFFFFFFFFFFFFFFFFFFFFFFFFFFFFFF5E
:1002B000FFFFFFFFFFFFFFFFFFFFFFFFFFFFFFFF4E
:1002C000FFFFFFFFFFFFFFFFFFFFFFFFFFFFFFFF3E
:1002D000FFFFFFFFFFFFFFFFFFFFFFFFFFFFFFFF2E
:1002E000FFFFFFFFFFFFFFFFFFFFFFFFFFFFFFFF1E
:1002F000FFFFFFFFFFFFFFFFFFFFFFFFFFFFFFFF0E
:10030000FFFFFFFFFFFFFFFFFFFFFFFFFFFFFFFFFD
:10031000FFFFFFFFFFFFFFFFFFFFFFFFFFFFFFFFED
:10032000FFFFFFFFFFFFFFFFFFFFFFFFFFFFFFFFDD
:10033000FFFFFFFFFFFFFFFFFFFFFFFFFFFFFFFFCD
:10034000FFFFFFFFFFFFFFFFFFFFFFFFFFFFFFFFBD
:10035000FFFFFFFFFFFFFFFFFFFFFFFFFFFFFFFFAD
:10036000FFFFFFFFFFFFFFFFFFFFFFFFFFFFFFFF9D
:10037000FFFFFFFFFFFFFFFFFFFFFFFFFFFFFFFF8D
:10038000FFFFFFFFFFFFFFFFFFFFFFFFFFFFFFFF7D
:10039000FFFFFFFFFFFFFFFFFFFFFFFFFFFFFFFF6D
:1003A000FFFFFFFFFFFFFFFFFFFFFFFFFFFFFFFF5D
:1003B000FFFFFFFFFFFFFFFFFFFFFFFFFFFFFFFF4D
:1003C000FFFFFFFFFFFFFFFFFFFFFFFFFFFFFFFF3D
:1003D000FFFFFFFFFFFFFFFFFFFFFFFFFFFFFFFF2D
:1003E000FFFFFFFFFFFFFFFFFFFFFFFFFFFFFFFF1D
:1003F000FFFFFFFFFFFFFFFFFFFFFFFFFFFFFFFF0D
:10040000FFFFFFFFFFFFFFFFFFFFFFFFFEFFFFFFFD
:100410002DE9F05F40F20008C2F20008F0C824BAEB
:100420002DBA36BA3FBAF0C298E8001C802900F015
:10043000D781C02900F0FF8090E80A0309BA1BBAEF
:1004400098FA88F899FA89F9A2E80A035AF8040B8D
:100450004FEA396ECCF844E8CCF800B0DCF884E818
:100460008EEA000E84EA0E0485EA040586EA050693
:1004700087EA0607F0C2CCF84478CCF800B0DCF884
:1004800084E881EA0E0183EA010388EA030889EA25
:100490000809A2E80A035AF8040B4FEA396ECCF8AF
:1004A00044E8CCF800B0DCF884E88EEA000E84EA78
:1004B0000E0485EA040586EA050687EA0607F0C207
:1004C000CCF84478CCF800B0DCF884E881EA0E017E
:1004D00083EA010388EA030889EA0809A2E80A0313
:1004E0005AF8040B4FEA396ECCF844E8CCF800B067
:1004F000DCF884E88EEA000E84EA0E0485EA04053E
:1005000086EA050687EA0607F0C2CCF84478CCF8FC
:1005100000B0DCF884E881EA0E0183EA010388EA8E
:10052000030889EA0809A2E80A035AF8040B4FEA0B
:10053000396ECCF844E8CCF800B0DCF884E88EEAF8
:10054000000E84EA0E0485EA040586EA050687EAB9
:100550000607F0C2CCF84478CCF800B0DCF884E8A8
:1005600081EA0E0183EA010388EA030889EA08099F
:10057000A2E80A035AF8040B4FEA396ECCF844E8B3
:10058000CCF800B0DCF884E88EEA000E84EA0E04B1
:1005900085EA040586EA050687EA0607F0C2CCF874
:1005A0004478CCF800B0DCF884E881EA0E0183EAF4
:1005B000010388EA030889EA0809A2E80A035AF84D
:1005C000040B4FEA396ECCF844E8CCF800B0DCF804
:1005D00084E88EEA000E84EA0E0485EA040586EAC1
:1005E000050687EA0607F0C2CCF84478CCF800B0DC
:1005F000DCF884E881EA0E0183EA010388EA030853
:1006000089EA0809A2E80A035AF8040B4FEA396E8E
:10061000CCF844E8CCF800B0DCF884E88EEA000EB0
:1006200084EA0E0485EA040586EA050687EA0607D9
:10063000F0C2BDE8F09F90E8000398FA88F899FAB4
:1006400089F9A2E800035AF8040B4FEA3963CCF8A1
:100650004438CCF800B0DCF8843883EA000384EA3C
:10066000030485EA040586EA050687EA060788EAA0
:10067000070889EA0809A2E8F0035AF8040B4FEAD0
:100680003963CCF84438CCF800B0DCF8843883EA1D
:10069000000384EA030485EA040586EA050687EA7E
:1006A000060788EA070889EA0809A2E8F0035AF869
:1006B000040B4FEA3963CCF84438CCF800B0DCF8CE
:1006C000843883EA000384EA030485EA040586EAA1
:1006D000050687EA060788EA070889EA0809A2E802
:1006E000F0035AF8040B4FEA3963CCF84438CCF8DD
:1006F00000B0DCF8843883EA000384EA030485EA66
:10070000040586EA050687EA060788EA070889EAF3
:100710000809A2E8F0035AF8040B4FEA3963CCF851
:100720004438CCF800B0DCF8843883EA000384EA6B
:10073000030485EA040586EA050687EA060788EACF
:10074000070889EA0809A2E8F0035AF8040B4FEAFF
:100750003963CCF84438CCF800B0DCF8843883EA4C
:10076000000384EA030485EA040586EA050687EAAD
:10077000060788EA070889EA0809A2E8F0035AF898
:10078000040B4FEA3963CCF84438CCF800B0DCF8FD
:10079000843883EA000384EA030485EA040586EAD0
:1007A000050687EA060788EA070889EA0809A2E831
:1007B000F0035AF8040B4FEA3963CCF84438CCF80C
:1007C00000B0DCF8843883EA000384EA030485EA95
:1007D000040586EA050687EA0607F0C2BDE8F09F31
:1007E000DAF800004FEA3763CCF84438CCF800B0B0
:1007F000DCF8843883EA000384EA030485EA04050C
:1008000086EA050687EA0607F0C2DAF804004FEA2E
:100810003763CCF84438CCF800B0DCF8843883EA8D
:10082000000384EA030485EA040586EA050687EAEC
:100830000607F0C2DAF808004FEA3763CCF844380C
:10084000CCF800B0DCF8843883EA000384EA0304BF
:1008500085EA040586EA050687EA0607F0C2DAF8A3
:100860000C004FEA3763CCF84438CCF800B0DCF821
:10087000843883EA000384EA030485EA040586EAEF
:10088000050687EA0607F0C2DAF810004FEA376378
:10089000CCF84438CCF800B0DCF8843883EA0003A4
:1008A00084EA030485EA040586EA050687EA060762
:1008B000F0C2DAF814004FEA3763CCF84438CCF8C9
:1008C00000B0DCF8843883EA000384EA030485EA94
:1008D000040586EA050687EA0607F0C2DAF818007A
:1008E0004FEA3763CCF84438CCF800B0DCF88438F1
:1008F00083EA000384EA030485EA040586EA050620
:1009000087EA0607F0C2DAF81C004FEA3763CCF832
:100910004438CCF800B0DCF8843883EA000384EA79
:10092000030485EA040586EA050687EA0607F0C29D
:10093000DAF820004FEA3763CCF84438CCF800B03E
:10094000DCF8843883EA000384EA030485EA0405BA
:1009500086EA050687EA0607F0C2DAF824004FEABD
:100960003763CCF84438CCF800B0DCF8843883EA3C
:10097000000384EA030485EA040586EA050687EA9B
:100980000607F0C2BDE8F09FAFF30080AFF3008030
:100990002DE9F01F90E8F00024BA2DBA36BA3FBA1C
:1009A00040F21000C2F20000B1E8000F84EA08042F
:1009B00085EA090586EA0A0687EA0B0790E8011F1F
:1009C0008BE8F000CCF80000CCF80080F0C989E892
:1009D000F000CCF80000CCF80080F0C989E8F00005
:1009E000CCF80000CCF80080F0C989E8F000CCF821
:1009F0000000CCF80080F0C989E8F000CCF80000D5
:100A0000CCF80080F0C989E8F000CCF80000CCF800
:100A10000080F0C989E8F000CCF80000CCF8008034
:100A2000F0C989E8F000CCF80000CCF80080F0C9EB
:100A300089E8F000CCF80000CCF80080F0C989E823
:100A4000F0000A2A1DD0CCF80000CCF80080F0C9D4
:100A500089E8F000CCF80000CCF80080F0C989E803
:100A6000F0000C2A0DD0CCF80000CCF80080F0C9C2
:100A700089E8F000CCF80000CCF80080F0C989E8E3
:100A8000F000CCF80000CCF800809AE8F00091E883
:100A9000000F84EA080485EA090586EA0A0687EA5F
:100AA0000B0724BA2DBA36BA3FBA83E8F000BDE886
:100AB000F01F7047AFF30080AFF30080AFF300800A
:100AC0002DE9F01F90E8F00024BA2DBA36BA3FBAEB
:100AD00040F23000C2F2000001EB021191E8000F79
:100AE00084EA080485EA090586EA0A0687EA0B070C
:100AF00090E8011F8BE8F00031E9F000CCF800002D
:100B0000CCF8008089E8F00031E9F000CCF8000072
:100B1000CCF8008089E8F00031E9F000CCF8000062
:100B2000CCF8008089E8F00031E9F000CCF8000052
:100B3000CCF8008089E8F00031E9F000CCF8000042
:100B4000CCF8008089E8F00031E9F000CCF8000032
:100B5000CCF8008089E8F00031E9F000CCF8000022
:100B6000CCF8008089E8F00031E9F000CCF8000012
:100B7000CCF8008089E8F00031E9F000CCF8000002
:100B8000CCF8008089E8F0000A2A21D031E9F00091
:100B9000CCF80000CCF8008089E8F00031E9F000E2
:100BA000CCF80000CCF8008089E8F0000C2A0FD0C7
:100BB00031E9F000CCF80000CCF8008089E8F000C2
:100BC00031E9F000CCF80000CCF8008089E8F000B2
:100BD000CCF80000CCF800809AE8F00031E9000F72
:100BE00084EA080485EA090586EA0A0687EA0B070B
:100BF00024BA2DBA36BA3FBA83E8F000BDE8F01F38
:100C0000704700BFAFF30080AFF30080AFF3008008
:100C100080B582B000AF78607968024804F0DCFDEE
:100C200000BEFDE79076000080B588B000AFB960E7
:100C30007B600346FB731346BB73BB7B012B01D068
:100C4000012321E0124ABB7B13747B683B61BB68C4
:100C50007B6100233B7600237B760123BB76012357
:100C6000FB7600233B7700237B77FB7BBB7707F189
:100C700010031946064804F0E1F9054B054A9A604D
:100C8000034B054ADA60002318462037BD4680BD75
:100C9000B0300020D15100006551000080B584B013
:100CA00000AF786039600023FB60094B1B7C002B90
:100CB00002D14FF0FF3306E03A687968054800F04A
:100CC00041F8F860FB6818461037BD4680BD00BF8C
:100CD000B0300020D90C000080B582B000AF786041
:100CE000084B1B7C002B02D14FF0FF3306E0054B75
:100CF0009B68391D0122034898470123184608378D
:100D0000BD4680BDB030002080B582B000AF0C4B36
:100D10001B7C002B05D14FF0FF330DE04FF0FF336C
:100D20000AE000BF064BDB68F91D01220448984722
:100D30000346002BF2D1FB7918460837BD4680BD2B
:100D4000B030002080B59CB002AFF860B9607A6026
:100D500000233B660023FB650023FB61002387F82B
:100D60004A3000237B61BB687B667B6E1B78002B5F
:100D700000F0D2817B6E1B7887F8493097F84930B4
:100D8000252B0BD097F84920FB6810469847FB6944
:100D90000133FB617B6E01337B66BCE1012387F885
:100DA0004B3000237B65002387F85B3020E07B6EAF
:100DB00001337B667B6E1B7887F8493097F84930A2
:100DC0002F2B0FD997F84930392B0BD87A6D134652
:100DD0009B0013445B001A4697F849301344303B9C
:100DE0007B6505E07B6E013B7B66012387F85B300A
:100DF00097F85B3083F00103DBB2002BD7D17B6E19
:100E000001337B667B6E1B782E2B2ED100233B6536
:100E1000002387F85B3020E07B6E01337B667B6EBE
:100E20001B7887F8493097F849302F2B0FD997F85E
:100E30004930392B0BD83A6D13469B0013445B00A5
:100E40001A4697F849301344303B3B6505E07B6E0A
:100E5000013B7B66012387F85B3097F85B3083F0BA
:100E60000103DBB2002BD7D102E07B6E013B7B6636
:100E70007B6E01337B667B6E1B7887F8493097F871
:100E80004930642B24D097F84930692B20D097F84B
:100E90004930662B1CD097F84930462B18D097F86C
:100EA0004930782B14D097F84930582B10D097F848
:100EB00049306F2B0CD097F84930622B08D097F847
:100EC0004930702B04D097F84930752B40F0DC8006
:100ED00097F84930642B03D097F84930692B15D126
:100EE0007B681A1D7A601B68BB6107F1180107F166
:100EF000200097F84B3000930A23012204F0A2FC53
:100F0000F86507F12002FB6D13443B6697F8493002
:100F1000582B03D097F84930782B1CD197F84930DB
:100F2000782B02D1002387F84B307B681A1D7A603A
:100F30001B687B6107F1140107F1200097F84B3023
:100F400000931023002204F07DFCF86507F12002D5
:100F5000FB6D13443B6697F849306F2B0BD097F825
:100F60004930622B07D097F84930702B03D097F89F
:100F70004930752B6AD197F84930702B0DD17B68B9
:100F80001A1D7A601B683B6107F1100107F1140319
:100F90000422184606F0E0F904E07B681A1D7A6026
:100FA0001B687B6197F84930623B132B3AD801A24A
:100FB00052F823F00D10000025100000251000004D
:100FC000251000002510000025100000251000004D
:100FD000251000002510000025100000251000003D
:100FE000251000002510000005100000151000005D
:100FF000251000002510000025100000251000001D
:101000001D100000082387F84A300CE0022387F8FF
:101010004A3008E0102387F84A3004E00A2387F8B2
:101020004A3000E000BF97F84A2007F1140107F1A9
:10103000200097F84B3000931346002204F002FC86
:10104000F86507F12002FB6D13443B667A6D07F1EA
:101050001C01FB6800930B46F96D202004F0D2FBC5
:101060003B6E002B54D00AE03B6E5A1E3A661B784A
:101070001A46FB6810469847FB690133FB613B6EDB
:101080001B78002BF0D143E097F84930632B0BD14C
:101090007B681A1D7A601B687B64FB68786C9847D4
:1010A000FB690133FB6133E097F84930732B27D19B
:1010B0007B681A1D7A601B68FB64FB6C002B27D0D1
:1010C000F86C06F0A6F90346FB657A6D07F11C0182
:1010D000FB6800930B46F96D202004F093FB0AE0B7
:1010E000FB6C5A1CFA641B781A46FB68104698473A
:1010F000FB690133FB61FB6C1B78002BF0D107E02F
:1011000097F84920FB6810469847FB690133FB615B
:101110007B6E01337B6628E600BFFB6918466837A3
:10112000BD4680BD80B584B000AF786039600A4BA1
:10113000FB604FF6FF71F86804F03DFD3A6879688E
:10114000F86805F0A6FBF86805F0E3FB03461846CF
:101150001037BD4680BD00BF0020034080B588B079
:1011600002AF7860396000237B613B6803F00F03B6
:10117000C3F110033B613A683B69134440F2DC520F
:10118000934201D9022351E03A683B69134418465F
:1011900004F064F90346274A1360264B1B683A683B
:1011A0007968184606F0D8F8224B1B68396818464B
:1011B00004F017FD1F4B19683B689AB23B699BB25C
:1011C00013449BB21C4A019200931C4B0A46802197
:1011D0001B4804F0D0FF0346002B04D0194804F04C
:1011E000FBFA012322E03A683B691344194613488D
:1011F000FFF798FF0346FB813A683B6913440F4AA7
:10120000134407F10E010222184606F0A5F83A68C9
:101210003B69134402331946084800F067F97861C6
:10122000044B1B68184606F09BF87B691846183774
:10123000BD4680BDA0360020B4760000C43000203A
:10124000A4760000CC76000080B588B002AF78604C
:1012500039607B68063306222F49184606F098F855
:101260000346002B55D10023FB817B6803F10C0161
:1012700007F10E030222184606F06EF8FB89023BC6
:101280009BB2FB817B680E33FA8911461846FFF743
:1012900049FF0346BB81FB890E337A68134407F18B
:1012A0000C010222184606F073F80346002B03D007
:1012B0001A4804F091FA2CE0FB89184604F0CEF8A5
:1012C00078617B6803F10E02FB8915490191009357
:1012D0007B698021134805F048F80346002B06D0AF
:1012E000114804F079FA786906F03AF811E0FB89C0
:1012F0001946786904F099FC38610C4B1B68002B87
:1013000004D00A4B1B68396978699847786906F0F8
:1013100027F81837BD4680BDC4760000F07600007F
:10132000B4760000A476000010770000A4360020F8
:1013300080B582B000AF7860044800F06BF8044AD2
:101340007B68136000BF0837BD4680BD49120000AE
:10135000A436002080B584B000AF78607B68012B94
:101360001AD10F4B9B6A9847F860FB68002B13D08B
:101370000B4B5B6AF9680B4898470346BB60FA68F9
:10138000BB689A4208D1084B1B68002B04D0064B5F
:101390001B68F9680348984700BF1037BD4680BDF9
:1013A000FC820000943C00208042002080B584B084
:1013B00000AF786039600023FB600023FB6007E02A
:1013C0000F4AFB681344FF221A70FB680133FB606D
:1013D000FB68052BF4D906220A490B4805F0BCFF2F
:1013E0003B4602221946094805F0B6FF3B681A46FB
:1013F0007968074805F0B0FF00BF1037BD4680BDD3
:10140000A836002034770000AE360020B436002025
:10141000B636002080B584B000AF7860294B2A4AE8
:101420001A6004F02DFC0346264A5360274A7B6865
:101430001360274B9B6827489847254B1B69022060
:101440009847234B9B6924489847244804F0C4F9E3
:1014500002E0234804F0C0F9224BDB6802209847E1
:101460000346002BF5D11A4B9B6B012103209847B3
:10147000174B9B6B0121022098471B4804F0ACF9E5
:10148000184B9B6998470346012BF9D1154BDB6933
:1014900098470346FB600E4B9B6BFA68C2F3010250
:1014A000D2B21146FA68C2F38002D2B292000A4365
:1014B00042F0800211460120984700BF00BF10375C
:1014C000BD4680BD8000002000000C40804200200E
:1014D000FC82000055130000347700003C770000C8
:1014E0005477000050830000B077000080B584B0CE
:1014F00000AF7860396039687868FFF757FF0C4BA8
:101500001B6A3A6802F10E0102220A489847034614
:10151000FB60FB68002B03D1074804F05DF902E093
:10152000064804F059F9FB6818461037BD4680BDDF
:10153000FC820000A8360020CC770000E477000091
:1015400080B582B000AF786039603968054804F032
:1015500043F97968044804F03FF900BF0837BD46F5
:1015600080BD00BF007800002878000080B5ADF590
:10157000BD6D00AF03F0E8FE03F09AFE05F096FEA5
:101580000021274804F084FB264804F025F907F5DC
:10159000BD63A3F2E45300221A6004334FF4BB622C
:1015A0000021184605F0DAFE0023C7F8E4350023D1
:1015B00087F8E3351C48FFF7BBFE1C4804F00CF924
:1015C000FFF7A2FB034687F8E33513E007F5BD6399
:1015D000A3F2E452D7F8E435134497F8E3251A70E0
:1015E000D7F8E4350133C7F8E435FFF78DFB034640
:1015F00087F8E33597F8E3350A2BE7D13B1DD7F899
:10160000E4151846FFF7AAFD3B1D40F2DC5200210D
:10161000184605F0A3FE0023C7F8E435CDE700BF68
:1016200000D00040307800004115000054780000E0
:1016300080B586B000AF786039604FF47A737B6113
:1016400000233B610023FB607B685B68184604F065
:1016500051FB3B681A687B681A607B6858687B6836
:10166000196807F10C03022204F065FB38613B693D
:10167000002B01D03B6968E07B69013B7B61FB6823
:10168000222B02D07B69002BE7D17B69002B01D193
:1016900001235AE07B6858687B6819684FF400435F
:1016A000002204F034FB38613B69002B4CD13B68CD
:1016B0009B79002B17D07B6858687B68196840F2CB
:1016C000E113042204F023FB38613B69002B3BD17A
:1016D0007B6858687B6819684FF49053002204F0C7
:1016E00016FB386130E03B681B79012B02D91948A1
:1016F000FFF78EFA7B6858687B68196807F10C035E
:10170000002204F018FB38613B69002B01D03B69D3
:101710001BE0FB6823F48063FB607B6858687B6890
:101720001968FB68002204F0F2FA38613B69002B6B
:1017300001D03B6909E03B6819793B685B791A463F
:10174000786800F0ABF838613B6918461837BD4639
:1017500080BD00BF9C78000080B584B000AF786089
:1017600039603B68002B02D10F48FFF751FA3B6804
:1017700000221A707B6858687B68196807F10803B3
:10178000012204F0D8FAF860FB68002B07D1BB688F
:1017900003F02003002B02D03B6801221A70FB6883
:1017A00018461037BD4680BDD478000080B584B09F
:1017B00000AF786039603B68002B02D11048FFF71A
:1017C00027FA7B6858687B68196807F108030122CB
:1017D00004F0B1FAF860FB68002B0BD1BB6803F092
:1017E0000403002B03D03B6801221A7002E03B681F
:1017F00000221A70FB6818461037BD4680BD00BF36
:10180000F478000080B588B000AFF860B9607A6005
:10181000BB68002B05D17B68002B02D11E48FFF767
:10182000F7F9FB685868FB68196807F114031E2272
:1018300004F081FAF861FB69002B27D1BB68002B0B
:1018400010D07B6903F00703BB61BB69022B02D098
:10185000BB69062B03D1BB6801221A7002E0BB688A
:1018600000221A707B68002B10D07B6903F00703FD
:10187000BB61BB69052B02D0BB69062B03D17B681A
:1018800001221A7002E07B6800221A70FB69184678
:101890002037BD4680BD00BF1479000080B584B0FC
:1018A00000AF78600B46FB701346BB70FB78012BD2
:1018B00002D91D48FFF7ACF97B6858687B68196846
:1018C00007F10803002204F036FAF860FB68002BE9
:1018D00024D1BB6823F48053BB60FB78012B04D177
:1018E000BB6843F40053BB6003E0BB6823F40053C0
:1018F000BB60BB78012B04D1BB6843F48073BB6031
:1019000003E0BB6823F48073BB607B6858687B6826
:101910001968BB68002204F0FAF9F860FB68184601
:101920001037BD4680BD00BF5479000080B584B03B
:1019300000AF7860084611461A460346FB700B4616
:10194000BB7013467B70FB78012B02D94848FFF728
:101950005FF9BB78012B02D94648FFF759F97B782C
:10196000002B46D0FB78002B13D1BB78012B03D181
:101970004FF4C243BB6002E04FF48243BB607B681C
:1019800058687B681968BB68002204F0C0F90346F8
:1019900069E0BB78012B02D03748FFF739F94FF4E3
:1019A000C243BB607B6858687B681968BB680022CB
:1019B00004F0ADF9F860FB68002B01D0FB6852E041
:1019C0007B6858687B68196807F108031F2204F0D8
:1019D000B2F9F860FB68002B44D17B6858687B68DB
:1019E0001968BB6843F004031F2204F090F9034612
:1019F00039E0FB78002B1CD17B6858687B6819683C
:101A000007F10803002204F096F9F860FB68002B48
:101A100028D1BB6823F48043BB607B6858687B682F
:101A20001968BB6843F40073002204F070F90346A0
:101A300019E07B6858687B68196807F108031F2262
:101A400004F079F9F860FB68002B0BD17B685868CB
:101A50007B681968BB6823F004031F2204F057F960
:101A6000034600E0FB6818461037BD4680BD00BF46
:101A700084790000B4790000E479000080B586B074
:101A800000AF78607B687B617B691B683B6138696C
:101A900000F064FFF860094AFB6852F823301846EA
:101AA00004F062FD7B695B6800221946386901F029
:101AB000EDFC00BF1837BD4680BD00BF947B000021
:101AC00080B588B000AFF860B9607A603B603B6871
:101AD000002B02D11648FFF79BF8FB68FB61FB69FE
:101AE0001B68BB6100237B614FF40001B86904F0FF
:101AF0006EFD02237A68B968B86905F044F8B869E0
:101B000004F0A1FD78617B69002B01D07B690BE0BB
:101B1000B86904F043FD02463B681A604FF40001C7
:101B2000B86904F054FD7B6918462037BD4680BD76
:101B3000287A000080B483B000AF7860084B1B683F
:101B400023F440227B689B0403F44023044913439D
:101B50000B6000BF0C37BD465DF8047B704700BFCB
:101B60000070044080B483B000AF78600A4B03F586
:101B700080535B6823F440327B681B0403F44033DA
:101B80000549134301F58052536000BF0C37BD4631
:101B90005DF8047B704700BF0070044080B582B0E0
:101BA00000AF174B1B7BDBB203F00303022B1CD0EF
:101BB000022B1DD8002B02D0012B0BD018E0114BAB
:101BC0001B68002B02D11048FFF722F80D4B1B6851
:101BD0007B6010E00D4B1B68002B02D10C48FFF717
:101BE00017F80A4B1B687B6005E00A4B7B6002E03C
:101BF00000237B6000BF7B6818460837BD4680BD68
:101C00000040064084420020507A000088420020B4
:101C1000747A0000006CDC0280B582B000AFFFF780
:101C2000BDFF7860254B1B78DBB2DB08DBB203F02D
:101C30000703FB70FB787A6822FA03F37B601F4B83
:101C40005B78DBB21B09DBB203F00303BB701B4BF9
:101C50001B7BDBB203F003037B70BB78002B02D04D
:101C60007B78002B02D07B78022B21D1FB78072BCD
:101C700014D0072B19DC052B02DC002B03DA14E04F
:101C8000062B04D011E07B685B097B6011E07B6868
:101C90000B4AA2FB03231B097B600AE07B68094A0D
:101CA000A2FB0323DB087B6003E000237B6000E0F2
:101CB00000BF7B6818460837BD4680BD004006401F
:101CC000CDCCCCCCABAAAAAA80B483B000AF0E4BCB
:101CD0009B79DBB203F00103002B03D10B4B1B6894
:101CE0007B600AE00A4B1A68074B1B7ADBB25B0881
:101CF00003F0070322FA03F37B607B6818460C3776
:101D0000BD465DF8047B7047004006409800002007
:101D10009C00002080B582B000AF094B9B79DBB2FC
:101D200003F01003002B03D1FFF776FF786002E089
:101D3000044B1B687B607B6818460837BD4680BD36
:101D4000004006409800002080B485B000AF786065
:101D50007B6849F69702934202D80023FB7308E0A0
:101D60007B68074A934202D80123FB7301E00223F8
:101D7000FB73FB7B18461437BD465DF8047B704748
:101D800000127A0080B582B000AF0C4B1B78DBB23A
:101D90005BB2002B0ADA0A4B1B68002B02D1094800
:101DA000FEF736FF064B1B687B6001E000237B607B
:101DB0007B6818460837BD4680BD00BF005006400E
:101DC000844200209C7A000080B582B000AF184B9E
:101DD0001B689B0C03F00303032B1DD0032B1FD8A0
:101DE000002B02D0022B0CD01AE0FFF7CBFF0346EA
:101DF000B3F5004F02D14FF4004300E000237B60B5
:101E000011E00C4B1B68002B02D10B48FEF700FFC2
:101E1000084B1B687B6006E04FF47A737B6002E03E
:101E200000237B6000BF7B6818460837BD4680BD35
:101E30000070044088420020BC7A000080B582B067
:101E400000AF114B03F580535B681B0C03F00303D9
:101E5000032B0ED0032B0FD8002B02D0012B04D064
:101E60000AE000F015F9786009E000F06BF978609D
:101E700005E0064B7B6002E000237B6000BF7B68CF
:101E800018460837BD4680BD00700440006CDC0277
:101E900080B500AF00F0CAF80246064B03F5805348
:101EA0005B6C1B0F03F00F030133B2FBF3F3184617
:101EB00080BD00BF0070044080B584B000AF034611
:101EC000FB71FB79132B00F28A8001A252F823F0F8
:101ED000211F0000211F00003F1F00005D1F0000A8
:101EE0007B1F0000DF1F0000991F0000A11F0000E2
:101EF000A91F0000DF1F0000DF1F0000B11F00004E
:101F0000B91F0000C11F0000C91F0000DF1F000033
:101F1000DF1F0000DF1F0000D11F0000D71F0000DF
:101F200000F084F80246324B03F580535B6C1B0FC4
:101F300003F00F030133B2FBF3F3FB6052E000F058
:101F400075F802462A4B03F580535B6C1B0E03F0B9
:101F50000F030133B2FBF3F3FB6043E000F066F8DC
:101F60000246234B03F580535B6C1B0D03F00F03FC
:101F70000133B2FBF3F3FB6034E000F057F80246A4
:101F80001B4B03F580535B6C1B0C03F00F030133F9
:101F9000B2FBF3F3FB6025E0FFF750FFF86021E0B0
:101FA000FFF712FFF8601DE0FFF7ECFEF86019E0A4
:101FB00004F099FBF86015E000F0ACF8F86011E06F
:101FC00000F066F8F8600DE000F0BCF8F86009E099
:101FD000084BFB6006E04FF47A73FB6002E00023DD
:101FE000FB6000BFFB6818461037BD4680BD00BFD0
:101FF00000700440006CDC0280B582B000AF7860F5
:10200000094A7B685B6802F5805253647B681B78E1
:102010001846FFF7A7FD7B685B781846FFF78AFD37
:1020200000BF0837BD4680BD0070044080B582B057
:1020300000AF164B9B79DBB29B0803F003033B60B8
:102040003B68032B1AD801A252F823F06520000048
:102050006D200000752000005D20000000F072F887
:1020600078600EE000F014F878600AE0FFF72CFECC
:10207000786006E0FFF792FD786002E000237B6065
:1020800000BF7B6818460837BD4680BD004006404B
:1020900080B584B000AF1D4B5B78DBB203F0020368
:1020A000002B06D1194B9B79DBB203F02003002BE8
:1020B00002D00023FB6024E0FFF72CFEB860BB6871
:1020C000002B02D1BB68FB601BE0104BDB78DBB25E
:1020D0005B09DBB203F00303FB710C4BDB78DBB273
:1020E000DB09DBB203F00103BB71FA79BB79084964
:1020F0005200134431F813301A46BB6802FB03F355
:10210000FB60FB6818461037BD4680BD00400640A6
:10211000507B000080B582B000AF094B1B78DBB26A
:1021200003F00203002B02D100237B6002E0FFF7E3
:10213000CBFD78607B6818460837BD4680BD00BF80
:102140000040064080B584B000AF1A4B9B79DBB2EB
:1021500003F04003002B02D10023FB6024E004F0D5
:10216000BBFAB860BB68002B02D11348FEF750FDE4
:10217000104B1B79DBB203F01F03DBB20133FB71A1
:10218000FB79BA68B2FBF3F3BB600A4B5B79DBB255
:1021900003F01F03DBB21833BB71BA79BB6802FBD3
:1021A00003F3BB60BB68FB60FB6818461037BD4695
:1021B00080BD00BF00400640DC7A000080B485B0DE
:1021C00000AF0346FB71174B1B7BDBB203F003022E
:1021D000FB799A4202D00123FB7301E00023FB73D9
:1021E000104B1B7BDBB223F00303DAB2FB7903F065
:1021F0000303DBB20B491343DBB20B73FB7B002BF6
:1022000009D040F2DC53BB6000E000BFBB685A1E3F
:10221000BA60002BF9D1002318461437BD465DF88B
:10222000047B70470040064080B485B000AF034691
:10223000FB710B46BB7113467B713B4B9B79DBB249
:102240009B0803F00303FB60374B9B79DBB203F081
:102250000103FB72344B1B7ADBB25B08DBB203F089
:102260000703BB727A79BB7A9A422CD02E4B1B782B
:10227000DBB203F00203002B02D1FB68012B12D169
:10228000FB7A012B0FD1284B5B78DBB2264A23F077
:102290000103DBB2537000BF234B9B79DBB203F029
:1022A0000103002BF8D1204B1B7ADBB223F02F0364
:1022B000DAB27B795B00DBB203F00E03DBB21A49C2
:1022C0001343DBB20B72184B5B78DBB223F00103D4
:1022D000DAB2BB7903F00103DBB213491343DBB27B
:1022E0004B70114B1B78DBB223F00303DAB20E49BB
:1022F000FB791343DBB20B70FB68012B04D0FB7935
:1023000003F00203002B08D000BF074B9B79DBB220
:1023100003F00102BB799A42F7D100231846143723
:10232000BD465DF8047B70470040064080B584B030
:1023300000AF78607B68002B02D11C48FEF768FC78
:102340000023FB737B685B7803F01F03DAB2FB7B2F
:102350001343FB73164AFB7B1371154B5B79DBB29E
:1023600023F01F03DAB27B689B7803F01F03DBB214
:102370000F491343DBB24B710D4B1B79DAB27B680B
:102380001B781343DBB20A4A43F04003DBB21371FC
:1023900000BF074B9B79DBB203F04003002BF8D062
:1023A00000BF00BF1037BD4680BD00BFFC7A0000F3
:1023B0000040064080B584B000AF78607B681B6841
:1023C0001846FFF7C1FC0346FB737B681B7919466F
:1023D000194804F067F9194B5B78DBB223F03C0332
:1023E000DAB2FB7B1B01DBB203F03003DBB2134339
:1023F000DAB27B685B7911491343DBB24B707B68BF
:10240000063319460C4804F033F97B685B79002BDE
:102410000DD0094B1B78DBB25BB2002B07DA00BF93
:10242000064B9B79DBB203F00203002BF8D000BF10
:102430001037BD4680BD00BF00500640004006403A
:1024400080B582B000AF03463960FB713B68002B5A
:1024500002D12348FEF7DCFB224B5B78DBB2214A3A
:1024600023F00203DBB253701E4B1B78DBB203F088
:102470003B03DBB21B4A63F07F03DBB2137000BF88
:10248000184B9B79DBB203F01C03082BF8D1154BDA
:102490005B79DBB2134A23F04003DBB2537100BF18
:1024A000104B9B79DBB203F02003002BF8D1386886
:1024B000FFF73CFF0B4B5B79DBB20A4A43F040036A
:1024C000DBB2537100BF074B9B79DBB203F02003F3
:1024D000002BF8D0002318460837BD4680BD00BF4A
:1024E000187B00000040064080B582B000AF034674
:1024F0003A60FB710B46BB713B68002B02D111485F
:10250000FEF786FBFB791846FFF758FEBB79396862
:102510001846FFF795FF0C4B1B78DBB20A4A03F015
:102520003F03DBB2137000BF074B9B79DBB29B0804
:1025300003F00303032BF7D1002318460837BD46E9
:1025400080BD00BF347B00000040064080B582B0F3
:1025500000AF786039600A4804F0DFF83B681B7B05
:10256000002B04D13968786804F047F903E0396832
:10257000786804F06BF900BF0837BD4680BD00BF26
:1025800012003C1090B583B000AF7860102200219B
:10259000786804F0E3FE7B68044A1C4613460FCBC0
:1025A00084E80F0000BF0C37BD4690BD607B000083
:1025B00090B589B000AF78607B68002B02D1674886
:1025C000FEF726FB7B689B687A68127CDA777B686B
:1025D0009A687B681B7C5B01134403F580531C33B2
:1025E0001B889BB203F08003002B14BF0123002340
:1025F000BB767B68DB68002B0DD17B681B68002BEA
:1026000000F0A7807B681C687B685968BA7E00234D
:102610007868A0479DE07B689A687B681B7C5B01BB
:10262000134403F5805318331B687B617B689A68F9
:102630007B681B7C5B01134403F580531C331B88B0
:102640009BB203F01003002B14BF01230023FB7483
:102650007B68DB681A467B699B1A7B617B695B0937
:10266000FB60BB7E002B02D0FB68FB760EE0FB68B4
:10267000002B04D0FB68DBB2013BDBB205E07B68DA
:102680001B7D5BB2DBB2013BDBB2FB767B685B7C24
:102690005AB297F91B309A4219D17B68DB7CFB72E6
:1026A0007B681B7DBB7297F90B2097F90A309A4221
:1026B00005D0FB7C83F00103DBB2002B04D07B68E8
:1026C000DB7C5BB2FB6112E00023FB610FE0FB7E71
:1026D0007A68527C52B29B1AFB61FB69002B06DAC6
:1026E0007B681B7D5BB21A46FB691344FB6197F95B
:1026F0001B207B685A747B68DB7C5BB2DAB2FB69B7
:10270000DBB2D31ADBB25AB27B68DA747B681B681F
:10271000002B07D07B681C687B685968FB69BA7E10
:102720007868A047BB7E002B13D07B689A687B68D3
:102730001B7C5B01134403F580531C331B889BB245
:1027400003F01003002B04D07B689B687A68127C2E
:102750001A7700BF2437BD4690BD00BF707B0000D4
:1027600080B500AF044B1B681846FFF721FFBFF38D
:102770004F8F00BF00BF80BD8C42002080B500AFEE
:10278000044B5B681846FFF713FFBFF34F8F00BF82
:1027900000BF80BD8C42002080B500AF044B9B6819
:1027A0001846FFF705FFBFF34F8F00BF00BF80BD86
:1027B0008C42002080B500AF044BDB681846FFF761
:1027C000F7FEBFF34F8F00BF00BF80BD8C420020DB
:1027D00080B500AF044B1B691846FFF7E9FEBFF355
:1027E0004F8F00BF00BF80BD8C42002080B500AF7E
:1027F000044B5B691846FFF7DBFEBFF34F8F00BF4A
:1028000000BF80BD8C42002080B500AF044B9B69A7
:102810001846FFF7CDFEBFF34F8F00BF00BF80BD4E
:102820008C42002080B500AF044BDB691846FFF7EF
:10283000BFFEBFF34F8F00BF00BF80BD8C420020A2
:1028400080B500AF044B1B6A1846FFF7B1FEBFF31B
:102850004F8F00BF00BF80BD8C42002080B500AF0D
:10286000044B5B6A1846FFF7A3FEBFF34F8F00BF10
:1028700000BF80BD8C42002080B500AF044B9B6A36
:102880001846FFF795FEBFF34F8F00BF00BF80BD16
:102890008C42002080B500AF044BDB6A1846FFF77E
:1028A00087FEBFF34F8F00BF00BF80BD8C4200206A
:1028B00080B500AF044B1B6B1846FFF779FEBFF3E2
:1028C0004F8F00BF00BF80BD8C42002080B500AF9D
:1028D000044B5B6B1846FFF76BFEBFF34F8F00BFD7
:1028E00000BF80BD8C42002080B500AF044B9B6BC5
:1028F0001846FFF75DFEBFF34F8F00BF00BF80BDDE
:102900008C42002080B500AF044BDB6B1846FFF70C
:102910004FFEBFF34F8F00BF00BF80BD8C42002031
:1029200080B483B000AF0346FB7197F90730002BEA
:102930000BDBFB7903F01F02074997F907305B09AE
:10294000012000FA02F241F8232000BF0C37BD46F7
:102950005DF8047B704700BF00E100E080B584B003
:1029600000AF78600023FB6006E00B4A7B6893426F
:1029700006D0FB680133FB60FB68002BF5D000E05C
:1029800000BFFB68002B02D00448FEF741F9FB684A
:1029900018461037BD4680BD00000C40987B0000F3
:1029A00080B582B000AF78607B68002B02D10E4802
:1029B000FEF72EF928220021786804F0CFFC7B680E
:1029C00001229A727B680122DA727B6801221A73F3
:1029D0007B6801229A757B6840F2EE521A8100BF33
:1029E0000837BD4680BD00BFCC7B000080B588B0F5
:1029F00002AFF860B9607A603B60BB68002B02D11F
:102A00002348FEF705F97B68002B02D12148FEF729
:102A1000FFF83B68002B02D11F48FEF7F9F83B6A2C
:102A2000002B02D11D48FEF7F3F87B689B7D012B3C
:102A300002D91B48FEF7ECF800237B613A687968FD
:102A4000B86800F0E7FA3A687968B86800F054FBB3
:102A50007B6A01933B6A00933B687A68B968F868BF
:102A600000F0B0F97B6A00933B687A68B968F8684F
:102A700000F0D4F8BB685B6B002B04D0B968F86831
:102A800000F0B8FB78617B6918461837BD4680BDF9
:102A9000EC7B00000C7C00002C7C0000547C0000CF
:102AA000787C000080B588B002AFF860B9607A60C9
:102AB0003B60F868FFF752FF78610B4B184603F054
:102AC0004BFFF86803F0B8FF7B6A01933B6A009301
:102AD0003B687A68B968F868FFF788FF03461846CC
:102AE0001837BD4680BD00BF00002C1080B584B0F3
:102AF00000AF78607868FFF731FFF8600C4AFB6838
:102B000052F82330BB607B6800229A607B685B6A66
:102B100023F002027B685A62BB689B6B002B03D0D8
:102B2000B968786800F0CCFB00BF1037BD4680BDA7
:102B3000CC42002080B582B000AF78607868FFF7A3
:102B4000D5FF7868FFF70AFF034B184603F01EFF16
:102B500000BF0837BD4680BD00002C1080B584B092
:102B600000AFF860B9607A60FB68002B02D10648BC
:102B7000FEF74EF8FB68BA68DA61FB687A681A6299
:102B800000BF1037BD4680BDCC7C000080B584B04E
:102B900000AF786039607868FFF7E0FEF8600649BA
:102BA000FB683A6841F823205423184603F00AFFD3
:102BB00000BF1037BD4680BDD442002080B584B030
:102BC00000AF786039607868FFF7C8FEF8600649A2
:102BD000FB683A6841F823205323184603F0F2FEBD
:102BE00000BF1037BD4680BDD042002080B584B004
:102BF00000AF786039607868FFF7B0FEF86006498A
:102C0000FB683A6841F823205523184603F0DAFEA2
:102C100000BF1037BD4680BDD842002080B588B0C7
:102C200000AFF860B9607A603B60F868FFF796FE25
:102C300078613B68BB6184220021B86804F08EFB98
:102C40000023FB776FE0BB699B881A46BB691B8832
:102C500002FB03F37A681289934202DC5348FDF7C2
:102C6000D7FFFA7FBB699968BB6843F83210FB7FD6
:102C7000BA699188BA6808335B0013440A469A809F
:102C8000FB7FBA691188BA68DB0013440A46DA8010
:102C9000FB7FBA69117EBA6813440A461A76FA7F36
:102CA000BB69D968B86813465B0013449B000344B2
:102CB00008331960FB7FBA69D188BA6808335B00B2
:102CC00013440A46DA80FA7FBB695888B96813460C
:102CD0005B0013449B000B44123302461A80FB7FB7
:102CE000BA69517EBA6813440A465A76FA7FBB69BC
:102CF000D969B86813465B0013449B00034424332E
:102D00001960FA7FBB695888B96813465B001344A1
:102D10009B000B442C3302461A80BB692033BB61F5
:102D2000FB7F0133FB777B689B7DFA7F9A428AD3D6
:102D30007B689A7DBB689A767B689A69BB685A63A0
:102D40007B68DA69BB689A637B681A6ABB68DA6178
:102D50007B685A6ABB681A62BB68BA6ADA67144948
:102D60007B69BA6841F823207B685B6803F04063A5
:102D7000002B03D00F49F868FFF720FF7B685B68E2
:102D800003F04073002B03D00B49F868FFF7FEFEF9
:102D90007B685A68094B1340002B03D00849F86838
:102DA000FFF724FF00BF2037BD4680BDEC7C00004C
:102DB000CC420020353D0000C13D000000007C6099
:102DC0001D3E000080B58CB000AFF860B9607A603D
:102DD0003B600023FB6200237B62FB685B6A3B6213
:102DE0007B681B68FB617B681B89BB620023BB613E
:102DF000FB6903F40073002B02D040F2F253BB6274
:102E0000FB695B0703F08042FB69DB039BB21A435B
:102E1000FB695B0103F020031A43FB699B0203F487
:102E200080531A43FB695B0003F010031A43FB69EC
:102E30001B0903F008031A43BB6A1904744B0B40C7
:102E4000134343F48043FB62FB6A43F00403FB62D9
:102E50007B689B7A012B03D1FB6A43F48073FB628E
:102E60007B68DB7A002B03D1FB6A43F40073FB62BF
:102E70007B681B7B002B03D1FB6A43F00203FB62E0
:102E80007B681B6803F48073002B0BD07B689B7AF4
:102E9000012B07D0FB6A43F00103FB62FB6A23F0BE
:102EA0000203FB62FB68FA6AC3F88420FB68D3F86C
:102EB000C43023F482737B627B681B7B002B01D0C0
:102EC000042200E00022FB691B0103F4807313431A
:102ED0007A6A13437B62FB687A6AC3F8C4207B6812
:102EE0009B7B1A46FB68C3F8C0217B685B7B1A4654
:102EF000FB68C3F8C421FB6903F00103002B14D065
:102F00007B681B8A1A46FB68C3F8EC207B689B7CB5
:102F10007B617B68DB7C1B0403F4F8137A69134341
:102F20007B61FB687A69C3F89421FB6903F0200395
:102F3000002B10D07B685B7D03F03F03BB61FB6817
:102F4000BA69C3F844217B681B7DBB61FB68BA6921
:102F5000C3F8902108E0FB684FF48072C3F8442165
:102F6000FB680022C3F890217B689B7B03F0180369
:102F7000002B04D0FB684FF48072C3F844217B68B7
:102F80005B7B03F00603002B03D0FB680022C3F831
:102F900090213B68DB681A46FB68C3F884213B68D4
:102FA0009B681A46FB68C3F880213B689B881A46D9
:102FB000FB68C3F88821B96BF86803F08DFDF868E9
:102FC00003F04AFD034683F00103DBB2002B0ED071
:102FD0007B681B689B0903F00103002B14BF0123CE
:102FE0000023DBB21A46F96BF86800F04FFA7B68F1
:102FF0005B681946F86803F05EFD3B6A43F4817331
:103000003B62FB683A6A5A6200BF3037BD4680BDFA
:103010000000FF3F80B58AB000AFF860B9607A6009
:10302000BB68002B02D13248FDF7F2FD7B68002B14
:1030300002D13048FDF7ECFD00233B627B68FB6169
:10304000002387F8273047E0FB69DB68002B3BD083
:10305000FB69DB68BB61FB69DB887B61FB695B69E2
:10306000002B02D0FB695B693B620023BB8426E036
:10307000FB695B69002B07D0BB8C7A6902FB03F309
:103080003A6A1A44BB695A60BB6900221A80BB695C
:103090004FF480625A80BA8CFB695B88013B9A428C
:1030A00007D1BB695B889BB243F400539AB2BB69FA
:1030B0005A80BB690833BB61BB8C0133BB84FB699D
:1030C0005B88BA8C9A42D3D3FB692033FB6197F8B3
:1030D0002730013387F82730BB689B7D97F827207E
:1030E0009A42B1D300BF00BF2837BD4680BD00BFA4
:1030F000447D0000647D000080B58AB000AFF860B8
:10310000B9607A60BB68002B02D13748FDF780FDBB
:103110007B68002B02D13548FDF77AFD7B683B6266
:10312000002387F8273053E03B6A9B88FF2B02D8A7
:103130002F48FDF76DFD3B6A9B68002B40D03B6A32
:103140001B69002B03D1BB689B69002B38D03B6AFD
:103150009B68FB613B6A9B887B833B6A1B697B6145
:103160000023BB8427E0FB6900221A80BB689B69AF
:10317000002B0CD1BB8C7A8B02FB03F31A467B69C4
:103180001A44FB695A60FB694FF400425A80BA8CBA
:103190003B6A1B88013B9A4207D1FB695B889BB263
:1031A00043F400539AB2FB695A80FB690833FB6110
:1031B000BB8C0133BB843B6A1B88BA8C9A42D2D346
:1031C0003B6A20333B6297F82730013387F827307A
:1031D000BB689B7D97F827209A42A5D300BF00BF0C
:1031E0002837BD4680BD00BF8C7D0000AC7D00004F
:1031F000D47D000080B586B000AF786039603B6850
:103200005B6B002B02D12C48FDF702FD00233B82B3
:1032100047E03A8A3B6853F83230002B02D1274806
:10322000FDF7F6FC3B8ADB003A681344FB60FB6861
:103230001B687B6100237B823B685B6B3A68116A89
:103240003A8AD2B278689847B860BB68002B06D13A
:103250003968786800F034F84FF47A6328E07B69C5
:10326000BA685A607B695B889BB26FEA43436FEA36
:1032700053439AB27B695A80FB68DA887B8A11468D
:10328000184600F053F903467B82FB681A687B8A74
:10329000DB0013447B617B8A002BCDD13B8A013359
:1032A0003B823B689B7E9BB23A8A9A42B1D3002311
:1032B00018461837BD4680BD187E0000487E0000C5
:1032C00090B589B000AF786039603B689B6B002B8C
:1032D00002D12A48FDF79CFC0023FB8242E0FA8AD7
:1032E0003B6853F83230002B02D12548FDF790FCA3
:1032F000FB8ADB003A6813443B613B691B68BB6196
:103300000023FB83BB695B68002B16D0BB695B683D
:10331000FB603B689C6B3B681A6AFB8ADBB2F9680E
:103320007868A047BB6900225A60BB695B889BB282
:1033300003F400539AB2BB695A803B69DA88FB8B6D
:103340001146184600F0F2F80346FB833B691A6801
:10335000FB8BDB001344BB61FB8B002BD2D1FB8AC0
:103360000133FB823B689B7E9BB2FA8A9A42B6D3BA
:1033700000BF00BF2437BD4690BD00BF847E000063
:10338000B07E000080B582B000AF78600B46FB7065
:10339000FB78002B02D00A48FDF73AFCBFF34F8FB1
:1033A00000BFFB78002B04D17B684FF080721A615C
:1033B00002E00448FDF72CFC00BF0837BD4680BD85
:1033C000EC7E0000387F000080B584B000AF7860EC
:1033D0000B46FB70FB78002B02D00D48FDF718FC64
:1033E0000023FB60BFF34F8F00BFFB78002B03D19E
:1033F0007B681433FB6003E07B681433FB6000BF21
:10340000FB6800221A6000BF1037BD4680BD00BFB8
:10341000507F000080B584B000AF786039603B68B1
:10342000002B02D11848FDF7F3FB7B68D3F8E4309A
:10343000FB60FB681B0EDAB23B681A70FB681A0C63
:103440003B680133D2B21A70FB681A0A3B68023338
:10345000D2B21A703B680333FA68D2B21A707B6832
:10346000D3F8E8301B0C9BB2FB60FB681A0A3B6880
:103470000433D2B21A703B680533FA68D2B21A70BC
:1034800000BF1037BD4680BD9C7F000080B588B06E
:1034900000AFF860B9601346FB71BB68002B03D026
:1034A000BB681D4A934202D91C48FDF7B1FB0023BB
:1034B000FB610023BB6100237B61BA68184B134496
:1034C000184AA2FB03235B0D013BBB61164ABB6894
:1034D000B2FBF3F303F109021349BB68B1FBF3F349
:1034E000B2FBF3F3013BFB61BB695B0003F07E02BF
:1034F000FB691B0203F4E0631343FA79002A01D04D
:10350000802200E0002213437B61FB687A695A64E1
:1035100000BF2037BD4680BD00D01213C07F000021
:103520003F4B4C006BCA5F6B00CA9A3B80B582B0C0
:1035300000AF03460A46FB801346BB80FA88BB886F
:103540009A4202D30848FDF763FBFB880133FB80F6
:10355000FA88BB889A4201D30023FB80FB88184677
:103560000837BD4680BD00BF0880000080B58AB026
:1035700000AFF860B9601346FB71FB68002B02D105
:103580004148FDF745FBBB68002B02D13F48FDF7E2
:103590003FFBFB79002B02D03D48FDF739FBBB68B0
:1035A00000221A604FF408437B83FB79DB00FA6842
:1035B00013447B617B691A687B699B88DB00134439
:1035C0007B627B699B887B84002387F82130002302
:1035D000FB617B6A5B889BB203F44043002B06D0FF
:1035E000012387F8213040F6A373FB613DE07B6A3D
:1035F0001B889BB2002B06D1012387F8213040F6AF
:10360000A173FB6131E07B6A5B889AB27B8B1340CC
:103610009BB2B3F5006F14D1012387F821307B6A88
:103620005B889BB203F03703002B03D040F6A173F5
:10363000FB611AE07B6A1B889BB21A46BB681A6062
:1036400013E07B69DA887B8C11461846FFF76EFF22
:1036500003467B847B691A687B8CDB0013447B62A6
:103660007B699B887A8C9A42C1D197F8213083F08C
:103670000103DBB2002B02D040F6A373FB61FB69B0
:1036800018462837BD4680BD288000004C800000C9
:103690007080000080B58EB000AFF860B9607A60CD
:1036A0003B60BB68002B02D15A48FDF7B1FA97F88E
:1036B0004030002B02D05848FDF7AAFA00237B6265
:1036C00000237B63002387F8333097F84030DB001A
:1036D000BA6813443B623B6A1A683B6A9B88DB000A
:1036E0001344FB623B6A9B88FB830023BB627B68BD
:1036F000002B40F08180FB6A5B887B8297F840302A
:103700001A46B968F86800F089F87B8A03F4006308
:10371000002B79D13B6A1A683B6A9B88DB00134413
:10372000FB623B6A9B88FA8B9A42E4D16DE0FB6AAC
:103730005B68BB617B687A6B13447B61FB6A5B8867
:103740009BB203F40063002B26D0012387F83330AB
:10375000FB6A1B889BB21A463B68934214D1FB6AF2
:103760001B889BB21A467B6BD31A7B627B69B96953
:103770007A6A184603F0F0FD97F840301A46B968A7
:10378000F86800F04BF840E097F840301A46B96806
:10379000F86800F043F828E0002387F833307A6BAC
:1037A0003B689A4203D340F6A273BB622DE078696E
:1037B000B96997F84030BA6808335B0013449B88B6
:1037C0001A4603F0C9FD97F84030BA6808335B0029
:1037D00013449B881A467B6B13447B6397F84030F5
:1037E0001A46B968F86800F019F83B6A1A683B6A2B
:1037F0009B88DB001344FB6297F8333083F00103AE
:10380000DBB2002B93D100E000BFBB6A184638370B
:10381000BD4680BDAC800000D080000080B586B081
:1038200000AFF860B9601346FB71BB68002B02D192
:103830001D48FDF7EDF9FB79002B02D01B48FDF781
:10384000E7F9FB79DB00BA6813447B617B691A688E
:103850007B699B88DB0013443B613B695B889BB2BF
:1038600003F400539AB23B695A803B695B889BB270
:103870006FEA43436FEA53439AB23B695A807B69CC
:103880009A887B69DB8819461046FFF74FFE03468E
:103890001A467B699A80FB791946F868FFF772FD32
:1038A00000BF1837BD4680BD1C810000408100006C
:1038B00080B590B000AFF860B9607A603B60BB68DB
:1038C000002B02D19C48FDF7A3F97B68002B02D1A5
:1038D0009A48FDF79DF997F84830002B02D0984898
:1038E000FDF796F997F8482013465B0013449B00B8
:1038F0000833BA681344FB6297F8482013465B000C
:1039000013449B002033BA6813440433BB62002382
:103910007B620023BB6300233B6200237B630023A5
:1039200087F83330FB68D3F884301B0CC3F30D03E6
:10393000043B3A689A4203D940F6A5737B636BE176
:10394000FB6A1A68FB6A9B88DB001344FB63FB6B12
:103950005B889BB21BB2002B03DA40F6A6737B6335
:103960005AE197F84830BA68134493F83030002B86
:103970000CD0B86A03F02CF9034683F00103DBB2E4
:10398000002B03D040F6A6737B6345E197F84830DF
:10399000BA6808335B001344DB881A463B689342DD
:1039A0005BD8FB6B5B68FB61FB693A68796818461A
:1039B00003F0D2FC3B689AB2FB6B1A80FB6B5B880E
:1039C0009AB2604B13439AB2FB6B5A80FB6A9A8897
:1039D000FB6A5B8919461046FFF7A8FD03461A46A5
:1039E000FB6A9A8097F84830BA68134493F83030ED
:1039F000002B2BD0BB6A1A68BB6A9B889B001344C0
:103A00007B627B6A3A6D1A60BB6A9A88BB6A1B89C3
:103A100019461046FFF78AFD03461A46BB6A9A808C
:103A2000BB6A9A88BB6ADB889A4202D1BB6A0122D0
:103A30009A7202F0E0FF7861FB6A1B899BB2013346
:103A40009AB2FB6A1A81786902F0E6FF97F848306B
:103A50001946F868FFF7B8FCDEE03A68BB6BD31A8A
:103A60003B62FB6B5B68FB617B68BA6B1344BB61B9
:103A7000FB6A9A88FB6A5B8919461046FFF756FD78
:103A800003461A46FB6A9A8097F84830BA680833AA
:103A90005B001344DB881A463B6A934254D9F869A9
:103AA000B96997F84830BA6808335B001344DB887B
:103AB0001A4603F051FC97F84830BA6808335B00A7
:103AC0001344DA88FB6B1A8097F84830BA680833D9
:103AD0005B001344DB881A46BB6B1344BB63FB6B70
:103AE0005B889BB23B613B6923F400633B613B69AC
:103AF00043F400433B613B699AB2FB6B5A8097F8F1
:103B00004830BA68134493F83030002B0CD002F0E0
:103B100072FF7861FB6A1B899BB201339AB2FB6A20
:103B20001A81786902F078FF97F848301946F868EA
:103B3000FFF74AFC58E000BF8C810000B081000014
:103B4000D08100000088FFFFFB69B9693A6A184616
:103B500003F002FC3B6A9AB2FB6B1A80FB6B5B883A
:103B60009AB2304B13439AB2FB6B5A8097F84830A5
:103B7000BA68134493F83030002B2BD0BB6A1A6814
:103B8000BB6A9B889B0013447B627B6A3A6D1A6018
:103B9000BB6A9A88BB6A1B8919461046FFF7C6FCA8
:103BA00003461A46BB6A9A80BB6A9A88BB6ADB885E
:103BB0009A4202D1BB6A01229A7202F01CFF78611C
:103BC000FB6A1B899BB201339AB2FB6A1A8178693E
:103BD00002F022FF97F848301946F868FFF7F4FB27
:103BE000012387F833300DE0FB6A1A68FB6A9B8873
:103BF000DB001344FB63FB6B5B889BB21BB2002BA7
:103C0000BFF62BAF97F8333083F00103DBB2002B04
:103C100002D040F6A6737B637B6B18464037BD46E7
:103C200080BD00BF0088FFFF90B58DB002AFF86087
:103C3000B9601346FB71FB79002B02D03C48FCF7BE
:103C4000E7FFFA7913465B0013449B000833BA6818
:103C500013443B623B6A1A683B6ADB88DB0013440F
:103C60007B62FA7913465B0013449B002033BA68E9
:103C700013440433FB610023BB614AE07B6A5B8829
:103C80009BB203F40063002B23D0FB691A68FB6925
:103C9000DB889B001344BB61FB69DA88FB691B89E5
:103CA00019461046FFF742FC03461A46FB69DA80C4
:103CB000FB6900229A72BB68DB69002B09D0BB68E4
:103CC000DC69BB681B6A0093BB690122B968F868AC
:103CD000A04702F090FE78613B6A1B899BB2013BD2
:103CE0009AB23B6A1A81786902F096FE3B6ADA88DA
:103CF0003B6A5B8919461046FFF718FC03461A46D3
:103D00003B6ADA803B6A1A683B6ADB88DB00134453
:103D10007B627B6A5B889BB21BB2002B04DB3B6A35
:103D20001B899BB2002BA9D100BF2C37BD4690BD8B
:103D30001C82000090B589B002AF786039603B68A2
:103D4000002B02D11D48FCF763FF4FF040637B61FD
:103D500000233B6127E07B685B68FB607B687A69D6
:103D60005A603A683B69134430331B78002B0CD0FF
:103D7000FB6803F00063002B07D03B69DBB21A46F7
:103D800039687868FFF750FF0DE03B68DB69002B6E
:103D900009D03B68DC693B681B6A00930023012261
:103DA00039687868A0477B685A687B691340002BA4
:103DB000D1D100BF00BF1C37BD4690BD6882000056
:103DC00090B587B002AF786039603B68002B02D1B4
:103DD0001148FCF71DFF4FF04073FB6010E07B685B
:103DE000FA685A603B68DB69002B09D03B68DC69E4
:103DF0003B681B6A00930023002239687868A0475B
:103E00007B685A68FB681340002BE8D100BF00BFF5
:103E10001437BD4690BD00BF8C82000090B587B0BE
:103E200002AF786039603B68002B02D11D48FCF777
:103E3000EFFE1D4BFB607B685B6803F40033002BD7
:103E400016D07B684FF400325A600021786802F087
:103E500016FE3B68DB69002B20D03B68DC693B68C1
:103E60001B6A00930023032239687868A04715E095
:103E70007B685B68FA681340FB607B68FA685A608D
:103E80003B68DB69002B09D03B68DC693B681B6A37
:103E900000930023022239687868A04700BF1437D6
:103EA000BD4690BDB082000000007C6080B584B04B
:103EB00000AF78607868FEF751FDF8600A4AFB6849
:103EC00052F82330002B0AD0074AFB6852F82330FF
:103ED0000649FA6851F8222011467868984700BFD1
:103EE0001037BD4680BD00BFDC420020CC42002020
:103EF00080B584B000AF78607868FEF72FFDF86079
:103F00000B4AFB6852F82330002B0AD0084AFB68A2
:103F100052F823300749FA6851F822201146786890
:103F20009847BFF34F8F00BF00BF1037BD4680BD1D
:103F3000D0420020CC42002080B584B000AF786031
:103F40007868FEF70BFDF8600A4AFB6852F82330E8
:103F5000002B0AD0074AFB6852F823300649FA685A
:103F600051F8222011467868984700BF1037BD46A7
:103F700080BD00BFD4420020CC42002080B584B078
:103F800000AF78607868FEF7E9FCF8600A4AFB68E1
:103F900052F82330002B0AD0074AFB6852F823302E
:103FA0000649FA6851F8222011467868984700BF00
:103FB0001037BD4680BD00BFD8420020CC42002053
:103FC00080B500AF0348FFF793FFBFF34F8F00BFEB
:103FD00000BF80BD00000C4080B500AF0348FFF774
:103FE000ABFFBFF34F8F00BF00BF80BD00000C4090
:103FF00080B500AF0348FFF7C1FFBFF34F8F00BF8D
:1040000000BF80BD00000C4080B500AF0348FFF743
:104010004DFFBFF34F8F00BF00BF80BD00000C40BD
:1040200080B483B000AF084B1B687B600023BA8864
:1040300062F30F03FA8862F31F4318460C37BD463C
:104040005DF8047B704700BFD482000080B586B065
:1040500000AFF860B9603B601346FB71FB79042B3D
:1040600018D801A252F823F07D40000083400000E0
:1040700095400000894000008F40000001237B61D3
:104080000BE002237B6108E004237B6105E0082349
:104090007B6102E009237B6100BF3B6A002B02D0F9
:1040A0003B6A7869984700BF1837BD4680BD00BF9E
:1040B00080B588B000AFF860B9607A600023FB611A
:1040C0007B681B7D002B02D14FF0FF33DFE0FB68E4
:1040D000013B042B00F2D68001A252F823F000BF6E
:1040E000F5400000154200003F42000085420000FC
:1040F000694200007B681B681B68D3F88430BB6191
:104100007B681B681B68D3F8C4307B61BB6803F015
:104110000303002B02D0012B05D009E0BB6943F457
:104120000073BB6108E0BB6923F40073BB6103E06B
:104130006FF00303FB6100BFFB69002B01D0FB693B
:10414000A5E0BB6803F00403002B02D0042B09D0C8
:1041500011E0BB6943F00203BB617B6923F00403F8
:104160007B610CE0BB6923F00203BB617B6943F018
:1041700004037B6103E06FF00303FB6100BFFB6995
:10418000002B01D0FB6982E0BB6803F06003002BC9
:1041900002D06FF003037AE0BB6803F08003002BCA
:1041A00004D0BB6923F01003BB6103E0BB6943F09B
:1041B0001003BB61BB6803F48073002B02D06FF067
:1041C000030364E0BB6803F40073002B03D0BB69F6
:1041D00043F00803BB61BB6803F01003002B0CD055
:1041E000BB6903F48073002B07D1BB6943F0010363
:1041F000BB61BB6923F00203BB617B681B681B6862
:10420000BA69C3F884207B681B681B687A69C3F8A5
:10421000C4203BE0BB68002B06D07B681B681B6892
:104220004FF080725A6131E07B681B681B685A69E5
:104230007B681B681B6822F080725A6126E0BB68AD
:10424000002B06D07B681B681B68184602F0F4FC44
:104250001CE07B681B681B681A697B681B681B680D
:1042600022F080721A6111E07B681B681A68BB68D3
:10427000002B14BF01230023DBB21946104602F0C5
:10428000E9FC03E06FF00303FB6100BFFB69184624
:104290002037BD4680BD00BF90B595B002AF034644
:1042A0003960FB7100237B64FB79022B2BD0022B3E
:1042B00000F38180002B02D0012B20D07BE03B68F3
:1042C0001B7D03F00203002B79D03A680021022005
:1042D000FFF7EEFE3A6800210320FFF7E9FE3B6896
:1042E0001B681B68184602F08AFC3B681B681B6849
:1042F0001846FEF71FFC3B6801221A755FE06FF05D
:1043000003037B645EE03B681B7D002B02D14FF012
:10431000FF3358E03B681B7D03F00203002B50D1B4
:1043200000237B6300233B8707F10C031846FEF74D
:1043300037FB02F0C5FC0346FB6397F83D3003F002
:104340000C03DBB2002B02D10023BB7508E097F809
:104350003D3003F00C03DBB2042B01D10123BB750C
:104360004FF060633B611823BB763B681B685B685A
:10437000984738643B681B6818683B6859683B6815
:104380009C6807F10C023B6C019307F13403009326
:104390002346FEF787FB3B6858683B68DB681A4694
:1043A0000B49FEF7DBFB3B681B7D43F00203DAB2EF
:1043B0003B681A7506E06FF003037B6402E000BF00
:1043C00000E000BF7B6C18464C37BD4690BD00BF77
:1043D0004D40000080B586B000AFF8607B600B46B2
:1043E000FB721346BB727B68002B02D12048FCF79E
:1043F0000FFCFB681B684FF40001184602F052FCEA
:10440000FB681868F97ABA7A022302F0BCFB4FF60F
:10441000FF737B610CE0FB681B68184602F036FCFA
:10442000034603F40003002B06D17B69013B7B614B
:104430007B69002BEFD100E000BF7B69002B02D12C
:104440004FF0FF3310E0FB681B68184602F0E7FBF3
:1044500003469AB27B681A80FB681B684FF4000120
:10446000184602F01FFC002318461837BD4680BDD1
:10447000D882000080B582B000AF786000F086FF7F
:104480000449786802F03FFC034618460837BD46E9
:1044900080BD00BFC000002080B500AF02F04EFF1D
:1044A000024802F048FC0346184680BDC0000020C8
:1044B00080B582B000AF0346FB71FB790449184612
:1044C000FFF7EAFE034618460837BD4680BD00BF29
:1044D000C000002080B582B000AF7860054A7B68DC
:1044E00019461046FEF796FF002318460837BD46CA
:1044F00080BD00BF00000C4080B584B000AF786084
:1045000007F1080306227968184602F025FF064ADB
:1045100007F108031946104602F0DEFA0023184698
:104520001037BD4680BD00BF00000C4080B584B090
:1045300000AFF860B9607A607B68BA68F9680448CF
:1045400002F04CFC034618461037BD4680BD00BF44
:10455000C000002080B500AF024802F07BFC03469B
:10456000184680BDC000002080B582B000AF7860E2
:1045700039603A687968044802F092FC03461846AC
:104580000837BD4680BD00BFC000002080B582B0A6
:1045900000AF78603960054A39687868FFF788FDB0
:1045A000034618460837BD4680BD00BFC000002046
:1045B00080B582B000AF0346FB710B46BB7113465A
:1045C000BB80BB88BA79F979034802F0C2FB034685
:1045D00018460837BD4680BDF482000080B582B021
:1045E00000AF03463A60FB710B46BB71BA79F979AB
:1045F0003B680448FFF7EEFE034618460837BD4601
:1046000080BD00BFF482000080B483B000AF084BCF
:104610001B687B600023BA8862F30F03FA8862F399
:104620001F4318460C37BD465DF8047B704700BF3A
:104630004083000080B586B000AF786039607B6849
:104640001B681B681846FEF789F90346224A52F890
:104650002330184602F075FC7B681B685B6898473E
:1046600038617B681B681B68002239691846FEF7B1
:104670000DFF4FF400420021184802F08CFC7861D5
:104680007B69002B23D107F10C031A460021134844
:1046900002F093FC78617B69002B18D1FB6823F44E
:1046A0004453FB603B68042B03D1FB6843F48073E5
:1046B000FB603B68012B03D1FB6843F40053FB60B4
:1046C000FB681A460021054802F065FC78617B69A9
:1046D00018461837BD4680BD947B00008C00002032
:1046E00080B586B000AF78600B46FB707B681B68B6
:1046F0001846FEF733F97861214A7B6952F8233076
:10470000184602F01EFC7B685B68984738617B683E
:104710001B68002239691846FEF7B8FEFB78002BAB
:1047200011D007F10C031A460021164802F045FC8F
:10473000FB6843F40063FB60FB681A4600211148E4
:1047400002F029FC17E007F10C031A4600210D487E
:1047500002F033FCFB6823F40063FB60FB681A463D
:104760000021084802F017FC07F10C031A4600214B
:10477000044802F022FC00BF1837BD4680BD00BFD0
:10478000947B00008C00002080B588B000AF034609
:10479000FB7107F1100300221A605A600023FB73BB
:1047A000FB79002B2ED0022B35D11F4B1B689B6849
:1047B0003B610123BB7507F1100319461B4802F04A
:1047C000DAFBF861FB69002B12D1194BBB6107F1D1
:1047D0000F031946154802F002FCFB7B002B06D1A3
:1047E000BB69013BBB61BB69002BF0D100E000BF9E
:1047F000FB7B002B02D00023FB6110E04FF0FF3366
:10480000FB610CE0084B1B6801211846FFF768FFAD
:104810000023FB6103E06FF00303FB6100BFFB6952
:1048200018462037BD4680BDD80000208C000020EF
:1048300000350C0080B588B000AF78600023FB61C4
:1048400007F1100300221A605A600023FB737B6893
:10485000022B02D07B68202B02D16FF003034BE0C8
:104860007B68102B07D1012301220121244802F08B
:10487000E8FBF86133E07B68082B2BD1214B1B68E8
:104880009B683B610123BB7507F1100319461C4867
:1048900002F071FBF861FB69002B20D11A4BBB6160
:1048A00007F10F031946164802F099FBFB7B002B1A
:1048B00006D1BB69013BBB61BB69002BF0D100E0B5
:1048C00000BFFB7B83F00103DBB2002B07D0012389
:1048D000FB6104E079680B48FFF7ACFEF861094A18
:1048E0007B685360FB69002B02D10023FB6102E06F
:1048F0004FF0FF33FB61FB6918462037BD4680BD92
:104900008C000020D800002000350C0080B584B059
:1049100000AF0023FB71FB1D19460A4802F06FFB34
:10492000B860BB68002B05D1FB79002B02D00123B6
:10493000FB7301E00023FB73FB7B18461037BD4679
:1049400080BD00BF8C00002080B584B000AF002384
:10495000BB60BA1DFB1D1946164802F060FBF860EB
:10496000FB68002B21D1FB79002B04D1BB686FF3CE
:104970000103BB600DE0FB79012B05D1BB6801226F
:1049800062F30103BB6004E0BB68022262F301032F
:10499000BB60BB79012B04D1BB6843F00403BB604F
:1049A00003E0BB686FF38203BB60BB681846103737
:1049B000BD4680BD8C00002080B584B000AF78601B
:1049C00039607B68DB78FB737B689B78BB73BB7B50
:1049D00003F02003002B04D1FB7B03F01003002B1A
:1049E00005D0094B1B6839687868984704E0074B85
:1049F0001B68396878689847BFF34F8F00BF00BFC6
:104A00001037BD4680BD00BF7043002074430020B6
:104A100080B500AF034B1B6819460348FFF7CCFF76
:104A200000BF80BD644300200060064080B500AF39
:104A3000034B5B6819460348FFF7BEFF00BF80BD0C
:104A4000644300200070064080B500AF034B9B68B4
:104A500019460348FFF7B0FF00BF80BD6443002044
:104A600000600E4080B584B000AF78600623BB6064
:104A70000023FB6009E00E4AFB6852F823307A6895
:104A80009A4207D0FB680133FB60FA68BB689A4220
:104A9000F1D300E000BFFA68BB689A4202D3054830
:104AA000FCF7B6F8FB6818461037BD4680BD00BF5E
:104AB00070830000A083000080B58AB000AFF8606A
:104AC000B9607A60BB68002B02D14E48FCF7A0F8B1
:104AD000BB681B68002B02D14B48FCF799F8FB68B8
:104AE0004A4A934219D0FB68494A934213D0FB6863
:104AF000484A93420DD0FB68474A934207D0FB686F
:104B0000464A934201D1012308E0FF2306E0012336
:104B100004E0012302E0082300E00823BA68927948
:104B2000934202DA3E48FCF773F8FB68374A934237
:104B300019D0FB68364A934213D0FB68354A93423A
:104B40000DD0FB68344A934207D0FB68334A934246
:104B500001D1012308E0FF2306E0012304E0012343
:104B600002E0082300E00823BA68D279934202DA0F
:104B70002C48FCF74DF800237B62002387F8233094
:104B80000023FB61BB681B681B017A68B2FBF3F36F
:104B90007B627B6A002B01D101237B620023BB6116
:104BA0007B685A00BB681B68B2FBF3F27B6A5B014F
:104BB000D31A7B617B685A007B6A59017B690B447D
:104BC000B2FBF3F3BB61BB681B68BA699A4204D9B4
:104BD000BB681B68BA69D31A03E0BB681A68BB6973
:104BE000D31AFB61BB681B680F4AA2FB03235A0957
:104BF00013465B001344FA699A4217D940F2F53321
:104C0000CEE000BFCC830000EC83000000A0064093
:104C100000B0064000C0064000D0064000A00E4094
:104C200018840000708400001F85EB51F868FFF7BE
:104C300019FF03465C4A52F82330184602F042FA44
:104C4000FB68DB78DBB223F00C03DAB2FB68DA70C6
:104C5000FB681B78DBB25BB223F01F035AB27B6A9E
:104C60001B0A5BB213435BB2DAB2FB681A707B6A51
:104C7000DAB2FB685A70FB689B7ADBB223F01F0341
:104C8000DAB27B69DBB203F01F03DBB21343DAB2A3
:104C9000FB689A72FB689B78DBB223F0170387F8F6
:104CA0002330BB689B7A9B00DBB203F00403DAB2CB
:104CB00097F82330134387F82330BB681B79002B08
:104CC00009D0BB681A7997F823301343DBB243F05D
:104CD000100387F82330FB6897F823209A70FB684D
:104CE0001B78DBB25BB223F020035AB2BB685B795E
:104CF0005B01DBB25BB203F020035BB213435BB238
:104D0000DAB2FB681A70BB689A79FB68DA74BB6820
:104D1000DA79FB685A75FB681B7CDBB263F07703BA
:104D2000DAB2FB681A74FB685B7CDBB263F03F03AA
:104D3000DAB2FB685A74BB681B7A002B07D0FB6899
:104D40005B7BDBB243F00803DAB2FB685A73BB68E3
:104D50005B7A002B07D0FB685B7BDBB243F001037F
:104D6000DAB2FB685A73FB68DB7887F82330BB68DC
:104D7000DB7A002B05D097F8233043F0080387F83F
:104D80002330BB681B7B002B05D097F8233043F002
:104D9000040387F82330FB6897F82320DA70002398
:104DA00018462837BD4680BD8883000080B582B094
:104DB00000AF78607B68002B02D11548FBF728FF15
:104DC00010220021786802F0C9FA7B684FF4E132C2
:104DD0001A607B6800221A717B6800225A717B6816
:104DE00000229A717B680122DA717B6800221A72B4
:104DF0007B6800225A727B6800229A727B680022CC
:104E0000DA727B6800221A7300BF0837BD4680BD86
:104E1000C884000080B586B000AFF860B9607A60E1
:104E2000BB68002B02D13948FBF7F2FE00237B61FF
:104E300060E0F86802F060F938613B6903F008034C
:104E4000002B0DD00821F86802F07AF90346002BF8
:104E500002D140F2F13301E040F2EE337B613FE0FA
:104E60003B6903F00103002B0CD00121F86802F02C
:104E700067F90346002B02D14FF47D7301E040F245
:104E8000EE337B613B6903F00203002B0CD002215F
:104E9000F86802F055F90346002B02D140F2F333D3
:104EA00001E040F2EE337B613B6903F00403002B29
:104EB0000CD00421F86802F043F90346002B02D11C
:104EC00040F2F23301E040F2EE337B617B69002B6C
:104ED00005D1FB689B7DDBB2002BAAD000E000BFB0
:104EE0007B69002B0CD1BB685A1CBA60FA68D27976
:104EF000D2B21A707B685A1E7A60002BE9D100E0AA
:104F000000BF7B6918461837BD4680BDE8840000A5
:104F100080B500AF054B1B68054A1268114605486D
:104F20009847BFF34F8F00BF00BF80BD9043002064
:104F30007843002000A0064080B500AF054B1B68F9
:104F4000054A5268114605489847BFF34F8F00BF86
:104F500000BF80BD904300207843002000B0064091
:104F600080B500AF054B1B68054A9268114605489D
:104F70009847BFF34F8F00BF00BF80BD9043002014
:104F80007843002000C0064080B500AF054B1B6889
:104F9000054AD268114605489847BFF34F8F00BFB6
:104FA00000BF80BD904300207843002000D0064021
:104FB00080B500AF054B1B68054A126911460548CC
:104FC0009847BFF34F8F00BF00BF80BD90430020C4
:104FD0007843002000A00E4080B500AF054B1B6851
:104FE000054A5269114605489847BFF34F8F00BFE5
:104FF00000BF80BD904300207843002000B00E40E9
:1050000080B500AF0B4BD3F888300A4A43F47003E5
:10501000C2F88830084B4CF22052DA81064B4DF62C
:105020002812DA81044B4FF4E9721A8002F026F953
:1050300000BF80BD00ED00E00020054080B588B0D5
:1050400000AF786039607B68002B02D14048FBF7E5
:10505000DFFD3B68002B02D13E48FBF7D9FD3B68E2
:105060009B7B052B02D93C48FBF7D2FD3B689B7B21
:105070001A463A4B53F82230002B02D13848FBF73E
:10508000C7FD07F108031846FFF790FE3B685B6811
:10509000BB603B681B7A022B02D102233B7308E002
:1050A0003B681B7A032B02D103233B7301E00023EF
:1050B0003B733B685B7A012B02D101237B7301E0D8
:1050C00000237B733B689B7A002B14BF01230023D2
:1050D000DBB23B753B68DB7A002B14BF0123002356
:1050E000DBB2FB743B681B7B002B14BF0123002346
:1050F000DBB23B743B685B7B002B14BF01230023B6
:10510000DBB27B740023BB730123FB733B689B7B87
:105110001A46124B53F822003B681A6807F108033D
:105120001946FFF7C9FCF861FB69002B04D0F86948
:1051300002F0ABF8034606E07B68BB613B689A7BF4
:10514000BB691A70002318462037BD4680BD00BFDA
:105150002085000040850000608500000885000073
:10516000C085000080B586B000AFF860B9607A6095
:10517000FB68002B02D11248FBF74AFDBB68002BED
:1051800002D11048FBF744FD7B68002B02D10E488A
:10519000FBF73EFDFB687B617B691B781A460B4B76
:1051A00053F822307A68B9681846FFF733FE386141
:1051B000386902F06AF8034618461837BD4680BDC4
:1051C0000086000020860000408600000885000060
:1051D00080B586B000AFF860B9607A60FB68002BDC
:1051E00002D11048FBF714FDBB68002B02D10E481A
:1051F000FBF70EFD7B68002B02D10C48FBF708FD86
:10520000FB687B617B691B781A46094B53F8223097
:105210007A68B968184601F0D3FF0023184618379A
:10522000BD4680BD6086000080860000A08600002C
:105230000885000080B400AF054B03F580531A4683
:105240004FF09273536400BFBD465DF8047B704716
:105250000070044080B483B000AF7860044A7B687B
:10526000136000BF0C37BD465DF8047B704700BF7C
:105270008442002080B483B000AF0346FB710B4B27
:105280001B78DBB223F03803DAB2FB79DB00DBB248
:1052900003F03803DBB205491343DBB20B7000BFE8
:1052A0000C37BD465DF8047B704700BF00400640E8
:1052B00080B500AFFFF7BEFF0F48FDF77BF80F4B3F
:1052C0001846FFF7C7FF0223002100221846FCF70B
:1052D000ABFF00231846FFF7CDFF0023084A00214B
:1052E0001846FDF701F90748FCF786FE064B074A0A
:1052F0001A6000BF80BD00BFD486000080F0FA02B3
:10530000C8860000CC860000E0000020000E2707C1
:1053100080B586B000AFF860B9607A607B68002B1A
:1053200002D10848FBF774FCBB689B00FA68134481
:105330007B617B697A6812881A8000BF1837BD4686
:1053400080BD00BFDC86000080B500AF0C4801F0D6
:10535000BEFF032210210B4801F0D3FF03221121CD
:10536000084801F0CEFF084B03F580531B69064A3D
:1053700023F0030302F58052136100BF80BD00BF1C
:105380000A00381000A004400070044080B582B0CC
:1053900000AF2C4801F09BFF2B4801F098FF2B48F1
:1053A00001F095FF04220C21294801F0AAFF0422F4
:1053B0000D21274801F0A5FF04220E21244801F009
:1053C000A0FF04220F21224801F09BFF042210219C
:1053D0001F4801F096FF042211211D4801F091FFA2
:1053E000042205211A4801F08CFF0023BB803B7981
:1053F00043F003033B713B7943F020033B717B791E
:10540000042262F302037B713B1D1A4600211148FE
:10541000FFF77EFF042201210E4801F072FF0422F3
:1054200010210D4801F06DFF042211210A4801F0FE
:1054300068FF04221221084801F063FF00BF08370B
:10544000BD4680BD090038100A0038100B00381026
:105450000090044000A0044000B00440F8B5304F74
:105460003C68002851D10020F8BD2368B3F1805F6B
:1054700039D1D4E9013151B10D68B5F1805F06D160
:10548000DD1C4B682B4463608B68A360F1E7B3427B
:1054900007DB734505DC20464FF0005340F80C3B1A
:1054A000E2E7634511D920464FF00055666040F8A9
:1054B0000C5B22F0030542199B1BA260033B4FF0DB
:1054C00080544451C2E90131CEE761B9A0EB8300B9
:1054D00000F064F80130C6D04FF00053C4E9003644
:1054E00004F10C00C0E72546A468002CBDD10C30A7
:1054F00000F054F8431CB6D04FF00053C0E900361A
:10550000846055B938600C30AEE7C21C960800259F
:1055100006F10A0C06F1030EE7E7A860F3E700BF07
:105520009843002010B5174A1749002001F095FF55
:105530004FF480734FF480620021124801F04AFF5B
:10554000124A1349012001F088FF4FF480730F487D
:105550004FF48062002101F03DFF0E4B1B68022BCF
:105560000EDD0D4A0A49022001F077FFBDE8104028
:1055700009484FF480734FF48062002101F02ABF84
:1055800010BD00BFA043002060870000DC43002066
:10559000628700005C8700001844002070B50B4D46
:1055A0002B680BB90A4B2B6003302E6820F00304E4
:1055B0003444204600F0CEF810B92C60304670BD5F
:1055C000044B0C221A604FF0FF36F7E7944300209B
:1055D000584400209C430020F8B5044638B90B4BD2
:1055E0000B4E1F680546A74205DC2846F8BDBDE8FE
:1055F000F84001F09CBF304601F099FF002818BF29
:105600004FF0FF3501343C36EDE700BF5C8700000A
:10561000A04300202DE9F843C6683C4B33400446C4
:105620000D4690461BB902273846BDE8F883D0F8EE
:105630001490484602F01DF807460028F3D1B8F14F
:10564000010F2CD0B8F1020F2ED0B8F1000FEAD123
:10565000002DE8DBB00404D52368E26A9A4238BF23
:10566000E362A169A9420EDC2368E26A934238BF73
:10567000134622695818801AA84204DB206B01EBFC
:10568000000CAC4531DC0023C4E9013346F02006B0
:10569000A56226F4032626F04006E660C4E720460D
:1056A00000F036F80544D3E7484601F0DFFFB0F1DB
:1056B000000CE26804DA42F08002E2600127B3E7FE
:1056C0002168A369E06A81422CBF5B181B1821691D
:1056D0009206A3EB010303D5A26A9342B8BF134617
:1056E0006345ACBFED186544B2E76D1AB10744BF1E
:1056F000281AA060F10744BF9B1AEB1A154448BF53
:105700006360256026F02006C3E700BF0300100099
:10571000C3689A0705D10E4B21221A604FF0FF3063
:10572000704703F020021B0309D512B1806A0138CB
:1057300070470368826900691344181AF7E70AB1D1
:10574000806A70470368826900691344181A7047B9
:105750009C430020044B23B1984234BF0020012019
:1057600070471846704700BF585400202DE9F0419B
:10577000D5685769EB0280460E46144605D5384673
:1057800001F074FF45F01005A061124B2B408BB166
:10579000A169384601F073FF002806DAE36843F098
:1057A0008003E3604FF0FF3011E025F4003525F071
:1057B0001005E56032464146384601F066FF20F0AC
:1057C0000041761AA1690E44A6610028E6D1BDE821
:1057D000F08100BF100002000FB480B582B000AFAE
:1057E00000237B6007F114033B6039683869FBF7DD
:1057F00055FA78607B6818460837BD46BDE880409A
:1058000004B0704780B586B000AFB9607A603B6085
:105810000346FB73BB687B610BE0FA7B3B6A104677
:1058200098473B681B685A1C3B681A607B690133C8
:105830007B617A697B689A42EFDB00BF00BF183753
:10584000BD4680BD80B48FB000AFF860B9607A60AB
:105850003B600023FB62FB68BB62BB6A5A1CBA62F6
:1058600000221A7000237B6000237B6200233B62CE
:105870000023FB6100237B630023BB6100233B63A8
:1058800000237B61BB681B687B637B6B002B30D183
:10589000BB6A30221A70FB6A0133FB62FB6A2CE0A0
:1058A0003B687A6BB2FBF3F3BB613B68BA6902FBFE
:1058B00003F37A6BD31A3B633B6B092B03D83B6B27
:1058C00030333B630AE097F84030002B01D041228F
:1058D00000E061223B6B13440A3B3B63BB697B6383
:1058E000BB6A5A1CBA623A6BD2B21A70FB6A0133B5
:1058F000FB627B6B002BD3D1FB6A18463C37BD465D
:105900005DF8047B704708B5FCF72AFF08BD08B5B1
:10591000FCF734FF08BD08B5FCF73EFF08BD08B52D
:10592000FCF748FF08BD08B5FCF752FF08BD08B5F5
:10593000FCF75CFF08BD08B5FCF766FF08BD08B5BD
:10594000FCF770FF08BD08B5FCF77AFF08BD08B585
:10595000FCF784FF08BD08B5FCF78EFF08BD08B54D
:10596000FCF798FF08BD08B5FCF7A2FF08BD08B515
:10597000FCF7ACFF08BD08B5FCF7B6FF08BD08B5DD
:10598000FCF7C0FF08BD08B5FAF76BFC08BD08B509
:10599000FAF767FC08BD08B5FAF763FC08BD08B55F
:1059A000FAF75FFC08BD08B5FAF75BFC08BD08B55F
:1059B000FAF757FC08BD08B5FAF753FC08BD08B55F
:1059C000FAF74FFC08BD08B5FFF722F808BD08B587
:1059D000FFF72CF808BD08B5FAF743FC08BD08B579
:1059E000FAF73FFC08BD08B5FAF73BFC08BD08B55F
:1059F000FAF737FC08BD08B5FAF733FC08BD08B55F
:105A000001F006FC08BD08B5FAF72BFC08BD08B587
:105A100001F007FC08BD08B5FAF723FC08BD08B57E
:105A200001F008FC08BD08B5FAF71BFC08BD08B575
:105A300001F009FC08BD08B5FAF713FC08BD08B56C
:105A4000FAF70FFC08BD08B5FAF70BFC08BD08B55E
:105A5000FAF707FC08BD08B5FAF703FC08BD08B55E
:105A6000FAF7FFFB08BD08B5FAF7FBFB08BD08B560
:105A7000FAF7F7FB08BD08B5FAF7F3FB08BD08B560
:105A8000FAF7EFFB08BD08B5FAF7EBFB08BD08B560
:105A9000FAF7E7FB08BD08B5FAF7E3FB08BD08B560
:105AA000FAF7DFFB08BD08B5FAF7DBFB08BD08B560
:105AB000FAF7D7FB08BD08B5FAF7D3FB08BD08B560
:105AC000FAF7CFFB08BD08B5FAF7CBFB08BD08B560
:105AD000FAF7C7FB08BD08B5FAF7C3FB08BD08B560
